:100000000C9458000C9480000C9480000C94800098
:100010000C9480000C9480000C9480000C94800060
:100020000C9480000C9480000C9480000C94800050
:100030000C9480000C9480000C9480000C94800040
:100040000C941C050C9480000C948C050C94660593
:100050000C9480000C9480000C9480000C94800020
:100060000C94BE050C9480000000000025002800C0
:100070002B00040404040404040402020202020229
:10008000030303030303010204081020408001025C
:1000900004081020010204081020000000080002DB
:1000A0000100000304070000000000000000DD065E
:1000B00011241FBECFEFD8E0DEBFCDBF11E0A0E01E
:1000C000B1E0E2E4F5E102C005900D92AA33B10778
:1000D000D9F722E0AAE3B1E001C01D92A63AB20727
:1000E000E1F710E0C8E5D0E004C02197FE010E94CE
:1000F000C808C735D107C9F70E9416070C949F0A94
:100100000C94000090E0FC01E656FF4F2491FC01A6
:10011000EA57FF4F3491FC01EE58FF4FE491EE2374
:10012000C9F0222339F0233001F1A8F4213019F16C
:10013000223029F1F0E0EE0FFF1FE859FF4FA591A3
:10014000B4918FB7F894EC91611126C030953E239D
:100150003C938FBF08952730A9F02830C9F0243090
:1001600049F7809180008F7D03C0809180008F7758
:1001700080938000DFCF84B58F7784BDDBCF84B5DB
:100180008F7DFBCF8091B0008F778093B000D2CF6E
:100190008091B0008F7DF9CF3E2BDACF3FB7F89436
:1001A0008091F9019091FA01A091FB01B091FC01BD
:1001B00026B5A89B05C02F3F19F00196A11DB11DC2
:1001C0003FBFBA2FA92F982F8827BC01CD01620FFE
:1001D000711D811D911D42E0660F771F881F991FB9
:1001E0004A95D1F7089508950895AF92BF92CF929E
:1001F000DF92EF92FF920F931F93CF93DF936C01E7
:100200007B018B01040F151FEB015E01AE18BF08C7
:10021000C017D10759F06991D601ED91FC91019079
:10022000F081E02DC6010995892B79F7C501DF9191
:10023000CF911F910F91FF90EF90DF90CF90BF90E3
:10024000AF900895FC01538D448D252F30E0842F0D
:1002500090E0821B930B541710F0CF9608950197EE
:100260000895FC01918D828D981761F0A28DAE0FDB
:10027000BF2FB11D5D968C91928D9F5F9F73928F62
:1002800090E008958FEF9FEF0895FC01918D828D8E
:10029000981731F0828DE80FF11D858D90E008955B
:1002A0008FEF9FEF0895FC01918D228D892F90E0B3
:1002B000805C9F4F821B91098F73992708958DEF62
:1002C00091E00E94530121E0892B09F420E0822F64
:1002D000089580E090E0892B29F00E945F01811150
:1002E0000C9400000895FC01A48DA80FB92FB11D36
:1002F000A35ABF4F2C91848D90E001968F7399275C
:10030000848FA689B7892C93A089B1898C91837039
:1003100080648C93938D848D981306C00288F38932
:10032000E02D80818F7D80830895EF92FF920F935F
:100330001F93CF93DF93EC0181E0888F9B8D8C8D91
:1003400098131AC0E889F989808185FF15C09FB785
:10035000F894EE89FF896083E889F9898081837048
:10036000806480839FBF81E090E0DF91CF911F91F7
:100370000F91FF90EF900895F62E0B8D10E00F5F18
:100380001F4F0F731127E02E8C8D8E110CC00FB6EE
:1003900007FCFACFE889F989808185FFF5CFCE0186
:1003A0000E947301F1CFEB8DEC0FFD2FF11DE35A8D
:1003B000FF4FF0829FB7F8940B8FEA89FB89808109
:1003C0008062CFCFCF93DF93EC01888D8823B9F083
:1003D000AA89BB89E889F9898C9185FD03C0808150
:1003E00086FD0DC00FB607FCF7CF8C9185FFF2CFCD
:1003F000808185FFEDCFCE010E947301E9CFDF91AF
:10040000CF9108952091A201260F3327331F213267
:100410003105ECF42091C601FC0190E080E024302D
:1004200069F082E00895A091A2012191AC014E579C
:100430005E4FA40FB52FB11D2C930196861798F32C
:100440008091A201680F6093A20180E0089581E08D
:1004500008951092C60181E08093C8011092C701EF
:1004600061E082E10E94820061E083E10E948200FB
:10047000E9EBF0E080818E7F808380818D7F8083B7
:1004800088E48093B80085E48093BC000895CF93FE
:10049000DF9391E0909381018823B9F0C091B80077
:1004A000D091BA008091BC008A7B8093BC0060E050
:1004B00082E10E94820060E083E10E9482000E944B
:1004C0002902D093BA00C093B800DF91CF9108956C
:1004D0000895E091F3018091F201E81730F4F0E023
:1004E000E45AFE4F808190E008958FEF9FEF0895CA
:1004F0009091F3018091F2012FEF3FEF981748F4AC
:10050000E92FF0E0E45AFE4F208130E09F5F9093A6
:10051000F301C90108958091F2019091F301891BC3
:10052000990B0895CF92DF92EF92FF920F931F9352
:10053000CF93DF937C01CB018A0120915B012223C1
:1005400089F0EB016B01C40ED51ECC15DD0569F0F9
:100550006991D701ED91FC910190F081E02DC701E7
:100560000995F3CF642F0E940202C801DF91CF9159
:100570001F910F91FF90EF90DF90CF900895CF9350
:10058000DF931F92CDB7DEB7698320915B012223F1
:10059000F9F02091F001203258F021E030E0FC0128
:1005A0003383228390E080E00F90DF91CF91089514
:1005B0008091F101E82FF0E0E55CFE4F9981908396
:1005C0008F5F8093F1018093F00181E090E0ECCFA8
:1005D00061E0CE0101960E940202F7CF90E080E038
:1005E0000895FC0101900020E9F73197AF01481B05
:1005F000590BBC018DEF91E00C94F5008F929F9206
:10060000AF92BF920F931F93CF93DF93CDB7DEB717
:10061000A1970FB6F894DEBF0FBECDBF19A242302E
:1006200008F44AE08E010F5D1F4F842E912CB12CEF
:10063000A12CA50194010E94A608E62FB901CA01C8
:10064000EA30F4F4E05DD801EE938D01232B242BE6
:10065000252B79F790E080E0109719F0CD010E94EA
:10066000F102A1960FB6F894DEBF0FBECDBFDF91A9
:10067000CF911F910F91BF90AF909F908F90089551
:10068000E95CE1CFCF92DF92EF92FF920F931F933D
:10069000CF9391E090935B0190E290933A01109296
:1006A000F1011092F001682F8AE992E00E94BF02E6
:1006B000C091F001C13208F091C00E94CE006B01E0
:1006C0007C018091C601811164C082E08093C601E3
:1006D00081E08093C8018FEF8093C5011092EA01F9
:1006E000C093E901ABE3B1E0E9ECF1E080E0C813CD
:1006F000E7C01092EB018091EB0180648093EB01E5
:100700008091C701813009F0DFC01092C7010E94BB
:10071000CE006B017C018091EB018093BB00809146
:100720007D0190917E01A0917F01B0918001892B84
:100730008A2B8B2B99F00E94CE0000917D011091A5
:100740007E0120917F01309180016C197D098E0915
:100750009F090617170728073907E0F18091BC00A9
:1007600083FDD9CF85EC8093BC000E94CE006B0145
:100770007C018091C601823009F4A8C08091C50136
:100780008F3F61F18091C501803241F18091C501B7
:1007900025C080917D0190917E01A0917F01B09153
:1007A0008001892B8A2B8B2B09F48BCF0E94CE00E2
:1007B00000917D0110917E0120917F013091800197
:1007C0006C197D098E099F09061717072807390735
:1007D00008F077CF80917C010E9447021092F101CE
:1007E0001092F00110925B010E94CE006B017C011F
:1007F0008091C60181118CC081E08093C6018093F5
:10080000C8019FEF9093C5011092EA011092E9018F
:100810008093EB018091EB0180648093EB018091E8
:10082000C701813009F0AAC01092C7010E94CE0012
:100830006B017C018091EB018093BB0080917D0175
:1008400090917E01A0917F01B0918001892B8A2B2C
:100850008B2BA1F00E94CE0000917D0110917E01B2
:1008600020917F01309180016C197D098E099F09CB
:10087000061717072807390708F46BC08091BC00DA
:1008800083FDD8CF85EC8093BC000E94CE006B0125
:100890007C018091C601813009F472C08091EA0127
:1008A000811190C08091EA01A9ECB1E0ECE5F1E0A2
:1008B00090E0981709F452C02D9121939F5FF9CFD2
:1008C0009D9191938F5F13CF85EE4DCF80917D01E8
:1008D00090917E01A0917F01B0918001892B8A2B9C
:1008E0008B2B09F446CF0E94CE0000917D01109120
:1008F0007E0120917F01309180016C197D098E0964
:100900009F09061717072807390708F032CF62CF6B
:1009100080917D0190917E01A0917F01B091800135
:10092000892B8A2B8B2B09F463CF0E94CE00009178
:100930007D0110917E0120917F01309180016C1921
:100940007D098E099F09061717072807390708F040
:100950004FCF80917C010E94470280E01092F3010A
:100960008093F2018AE992E00E947802CF911F9170
:100970000F91FF90EF90DF90CF90089585EE83CF99
:1009800080917D0190917E01A0917F01B0918001C5
:10099000892B8A2B8B2B09F47CCF0E94CE000091EF
:1009A0007D0110917E0120917F01309180016C19B1
:1009B0007D098E099F09061717072807390708F0D0
:1009C00068CFC7CF81E070CF85ED8093BC00809168
:1009D0007D0190917E01A0917F01B09180010796E9
:1009E000A11DB11D23E0B695A795979587952A95EA
:1009F000D1F72091BC0024FD03C01092C6010895D8
:100A000040917D0150917E0160917F017091800144
:100A1000452B462B472B69F30097A105B10541F003
:100A200025E32A95F1F700000197A109B109E1CF6B
:100A300080917C010C9447021F920F920FB60F9287
:100A400011242F933F938F939F93AF93BF938091E4
:100A5000F5019091F601A091F701B091F801309164
:100A6000F40123E0230F2D3758F50196A11DB11D88
:100A70002093F4018093F5019093F601A093F70180
:100A8000B093F8018091F9019091FA01A091FB01D6
:100A9000B091FC010196A11DB11D8093F9019093C5
:100AA000FA01A093FB01B093FC01BF91AF919F911C
:100AB0008F913F912F910F900FBE0F901F9018951F
:100AC00026E8230F0296A11DB11DD2CF1F920F92CF
:100AD0000FB60F9211242F933F934F935F936F9311
:100AE0007F938F939F93AF93BF93EF93FF938DEF7C
:100AF00091E00E947301FF91EF91BF91AF919F919F
:100B00008F917F916F915F914F913F912F910F90B6
:100B10000FBE0F901F9018951F920F920FB60F9255
:100B200011242F938F939F93EF93FF93E0910D02E6
:100B3000F0910E028081E0911302F091140282FD87
:100B40001BC09081809116028F5F8F7320911702D6
:100B5000821741F0E0911602F0E0E350FE4F958FCE
:100B600080931602FF91EF919F918F912F910F909B
:100B70000FBE0F901F9018958081F4CF1F920F9297
:100B80000FB60F9211242F933F934F935F936F9360
:100B90007F938F939F93AF93BF93EF93FF93809136
:100BA000B900887F803609F44AC0F0F5883209F42C
:100BB000A7C018F5803109F49BC0B8F4882309F464
:100BC000F9C0883009F494C0FF91EF91BF91AF91C3
:100BD0009F918F917F916F915F914F913F912F9155
:100BE0000F900FBE0F901F901895883109F488C0A0
:100BF000803251F78093C50114C0803409F49DC040
:100C000040F48033B9F38833F9F68093C50185EC5D
:100C1000B0C0803509F485C0883509F496C08834A1
:100C200099F60E94E404D0CF883909F48CC038F5D5
:100C3000883729F050F4883611F0803729F683E0A0
:100C40008093C6011092C40157C0883809F47BC054
:100C5000803919F0803809F0B7CF8091C401803213
:100C600008F071C0E091C40181E08E0F8093C4014F
:100C70008091BB00F0E0EC55FE4F80833DC0803B8F
:100C800039F0E0F4803A09F479C0883A09F09CCF51
:100C900084E08093C6011092A3011092A201E0911A
:100CA000EE01F091EF0109958091A20181110FC031
:100CB00081E08093A2011092820109C0803C09F476
:100CC000A6CF883C09F4A3CF883B09F07DCFE09103
:100CD000A30181E08E0F8093A301F0E0EE57FE4F59
:100CE00080818093BB009091A3018091A20129C0D3
:100CF0008091EB018093BB0085EC8093BC0064CFB6
:100D00009091EA018091E901981758F5E091EA0184
:100D100081E08E0F8093EA01F0E0E753FE4F80817F
:100D2000E9CFE091EA0181E08E0F8093EA018091A2
:100D3000BB00F0E0E753FE4F80839091EA01809181
:100D4000E9019817C8F285E8D8CFE091EA0181E07F
:100D50008E0F8093EA018091BB00F0E0E753FE4FD5
:100D600080838091C80181115CCF81E08093C701AD
:100D700084EA8093BC001092C60126CF85EC809354
:100D8000BC001092C6018091C401803230F4E09121
:100D9000C401F0E0EC55FE4F10826091C40170E098
:100DA000E091EC01F091ED0184EA91E00995109257
:100DB000C4010ACF1092C50134CFEDEFF1E01382E8
:100DC000128288EE93E0A0E0B0E084839583A6834E
:100DD000B78324E031E03183208325EC30E0358790
:100DE000248724EC30E03787268720EC30E0318BF5
:100DF000208B21EC30E0338B228B22EC30E0358BE2
:100E0000248B26EC30E0378B268B118E128E138EBE
:100E1000148EEAE9F2E01382128284839583A6831A
:100E2000B78386E191E0918380830895789484B5B7
:100E3000826084BD84B5816084BD85B5826085BDD6
:100E400085B5816085BD80916E00816080936E0064
:100E50001092810080918100826080938100809156
:100E60008100816080938100809180008160809307
:100E700080008091B10084608093B1008091B000C7
:100E800081608093B00080917A00846080937A00C2
:100E900080917A00826080937A0080917A008160EC
:100EA00080937A0080917A00806880937A00109213
:100EB000C1001092F3011092F2011092F101109210
:100EC000F0010E94290283EF90E09093EF0180935C
:100ED000EE0184EF90E09093ED018093EC01E091BE
:100EE0000D02F0910E0282E08083E0910902F09100
:100EF0000A021082E0910B02F0910C028FEC8083C9
:100F000010921502E0911102F091120286E08083A6
:100F1000E0910F02F0911002808180618083E09166
:100F20000F02F0911002808188608083E0910F02AF
:100F3000F0911002808180688083E0910F02F0912F
:100F4000100280818F7D8083C0E0D0E083E00E942A
:100F50004203E82E84E00E944203FE2CE82E96E035
:100F6000F694E7949A95E1F785E00E94420386E0C3
:100F70000E9442038FEFE81683E0F80609F0E1C013
:100F800080E00E944203F82E82E00E944203682F14
:100F900070E084E0759567958A95E1F7072E000C5F
:100FA000880B990B0E94780920E030E040E85DE36F
:100FB0000E942D0A4B015C016F2D70E090E080E0F3
:100FC0000E9478099B01AC01C501B4010E94CF08C1
:100FD0000E944009072E000C880B990B0E9478098B
:100FE0006B017C014B015C01AC019B010E949A0AE0
:100FF000882329F084E291E00E94F10293C0260147
:101000003701E89477F82FEF3FEF4FE75FE7C30131
:10101000B2010E949A0A81110DC02FEF3FEF4FE7F6
:101020005FE7C301B2010E943B0918161CF488E275
:1010300091E0E2CF2FEF3FEF4FE75FE4C701B6014A
:101040000E94280A18161CF48CE291E0D5CF2FEFED
:101050003FEF4FE75FECC701B6010E943B0987FDF8
:10106000F3CF20E030E0A901C701B6010E943B099F
:1010700087FF0BC06DE28DEF91E00E949501460164
:101080005701B7FAB094B7F8B0942AE037ED43EAC5
:101090005BE3C501B4010E94CF084B015C010E94D3
:1010A00047096B017C010E9476099B01AC01C501D7
:1010B000B4010E94CE084B015C014AE0C701B601B1
:1010C0000E94FE026EE28DEF91E00E94950120E009
:1010D00030E040E251E4C501B4010E942D0A4B0109
:1010E0005C010E9447096B01F12CE12C4AE0C70129
:1010F000B6010E94FE02C701B6010E9476099B015B
:10110000AC01C501B4010E94CE0820E030E040E20D
:1011100051E40E942D0A0E94470990E080E04AE0D5
:101120000E94FE0280E391E00E94F102209709F400
:101130000DCF0E945F01882309F408CF0E940000B0
:1011400005CFEF2899F783E391E056CFA1E21A2E5D
:10115000AA1BBB1BFD010DC0AA1FBB1FEE1FFF1F5B
:10116000A217B307E407F50720F0A21BB30BE40BAB
:10117000F50B661F771F881F991F1A9469F76095F2
:101180007095809590959B01AC01BD01CF010895AC
:10119000EE0FFF1F0590F491E02D09945058BB27E6
:1011A000AA270E94E6080C94EE090E94E00938F094
:1011B0000E94E70920F039F49F3F19F426F40C94BB
:1011C000DD090EF4E095E7FB0C94D709E92F0E94A6
:1011D000FF0958F3BA17620773078407950720F0D1
:1011E00079F4A6F50C94210A0EF4E0950B2EBA2F93
:1011F000A02D0B01B90190010C01CA01A00111241D
:10120000FF27591B99F0593F50F4503E68F11A16C8
:10121000F040A22F232F342F4427585FF3CF469559
:1012200037952795A795F0405395C9F77EF41F167B
:10123000BA0B620B730B840BBAF09150A1F0FF0F45
:10124000BB1F661F771F881FC2F70EC0BA0F621F31
:10125000731F841F48F4879577956795B795F79521
:101260009E3F08F0B0CF9395880F08F09927EE0FB6
:101270009795879508950E94B30908F481E0089531
:101280000E9447096894B1110C94220A08950E94A3
:10129000070A88F09F5798F0B92F9927B751B0F0F7
:1012A000E1F0660F771F881F991F1AF0BA95C9F7EA
:1012B00014C0B13091F00E94210AB1E008950C945D
:1012C000210A672F782F8827B85F39F0B93FCCF310
:1012D000869577956795B395D9F73EF49095809567
:1012E000709561957F4F8F4F9F4F0895E89409C087
:1012F00097FB3EF490958095709561957F4F8F4F49
:101300009F4F9923A9F0F92F96E9BB279395F6955E
:10131000879577956795B795F111F8CFFAF4BB0FDC
:1013200011F460FF1BC06F5F7F4F8F4F9F4F16C040
:10133000882311F096E911C0772321F09EE8872FCA
:10134000762F05C0662371F096E8862F70E060E086
:101350002AF09A95660F771F881FDAF7880F9695FF
:10136000879597F90895990F0008550FAA0BE0E8A3
:10137000FEEF16161706E807F907C0F01216130657
:10138000E407F50798F0621B730B840B950B39F497
:101390000A2661F0232B242B252B21F408950A26FD
:1013A00009F4A140A6958FEF811D811D089597F93D
:1013B0009F6780E870E060E008959FEF80EC0895FB
:1013C00000240A9416161706180609060895002424
:1013D0000A9412161306140605060895092E03949E
:1013E000000C11F4882352F0BB0F40F4BF2B11F412
:1013F00060FF04C06F5F7F4F8F4F9F4F089557FD71
:101400009058440F551F59F05F3F71F04795880F72
:1014100097FB991F61F09F3F79F087950895121609
:1014200013061406551FF2CF4695F1DF08C01616B5
:1014300017061806991FF1CF869571056105089466
:101440000895E894BB2766277727CB0197F908957D
:101450000E94B30908F48FEF08950E94400A0C948B
:10146000EE090E94E00938F00E94E70920F0952378
:1014700011F00C94D7090C94DD0911240C94220A64
:101480000E94FF0970F3959FC1F3950F50E0551F1F
:10149000629FF001729FBB27F00DB11D639FAA27C9
:1014A000F00DB11DAA1F649F6627B00DA11D661F18
:1014B000829F2227B00DA11D621F739FB00DA11D39
:1014C000621F839FA00D611D221F749F3327A00DF3
:1014D000611D231F849F600D211D822F762F6A2F8F
:1014E00011249F5750409AF0F1F088234AF0EE0FF4
:1014F000FF1FBB1F661F771F881F91505040A9F721
:101500009E3F510580F00C94D7090C94220A5F3F4E
:10151000E4F3983ED4F3869577956795B795F7955C
:10152000E7959F5FC1F7FE2B880F911D96958795D4
:1015300097F908950E94B309880B990B0895F894C0
:02154000FFCFDB
:10154200000000009501F5002201E2015301310182
:10155200450100000000BF029202EE0268028B0207
:10156200780269026E616E00696E66006F766600CF
:0A1572000D0A00506172742032006F
:00000001FF
