:100000000C9458000C9480000C9480000C94800098
:100010000C9480000C9480000C9480000C94800060
:100020000C9480000C9480000C9480000C94800050
:100030000C9480000C9480000C9480000C94800040
:100040000C941C050C9480000C948C050C94660593
:100050000C9480000C9480000C9480000C94800020
:100060000C94BE050C9480000000000025002800C0
:100070002B00040404040404040402020202020229
:10008000030303030303010204081020408001025C
:1000900004081020010204081020000000080002DB
:1000A0000100000304070000000000000000DD065E
:1000B00011241FBECFEFD8E0DEBFCDBF11E0A0E01E
:1000C000B1E0ECE7F5E102C005900D92A034B10774
:1000D000D9F722E0A0E4B1E001C01D92AD3AB20729
:1000E000E1F710E0C8E5D0E004C02197FE010E94CE
:1000F000E508C735D107C9F70E9416070C94BC0A5A
:100100000C94000090E0FC01E656FF4F2491FC01A6
:10011000EA57FF4F3491FC01EE58FF4FE491EE2374
:10012000C9F0222339F0233001F1A8F4213019F16C
:10013000223029F1F0E0EE0FFF1FE859FF4FA591A3
:10014000B4918FB7F894EC91611126C030953E239D
:100150003C938FBF08952730A9F02830C9F0243090
:1001600049F7809180008F7D03C0809180008F7758
:1001700080938000DFCF84B58F7784BDDBCF84B5DB
:100180008F7DFBCF8091B0008F778093B000D2CF6E
:100190008091B0008F7DF9CF3E2BDACF3FB7F89436
:1001A0008091000290910102A0910202B09103029D
:1001B00026B5A89B05C02F3F19F00196A11DB11DC2
:1001C0003FBFBA2FA92F982F8827BC01CD01620FFE
:1001D000711D811D911D42E0660F771F881F991FB9
:1001E0004A95D1F7089508950895AF92BF92CF929E
:1001F000DF92EF92FF920F931F93CF93DF936C01E7
:100200007B018B01040F151FEB015E01AE18BF08C7
:10021000C017D10759F06991D601ED91FC91019079
:10022000F081E02DC6010995892B79F7C501DF9191
:10023000CF911F910F91FF90EF90DF90CF90BF90E3
:10024000AF900895FC01538D448D252F30E0842F0D
:1002500090E0821B930B541710F0CF9608950197EE
:100260000895FC01918D828D981761F0A28DAE0FDB
:10027000BF2FB11D5D968C91928D9F5F9F73928F62
:1002800090E008958FEF9FEF0895FC01918D828D8E
:10029000981731F0828DE80FF11D858D90E008955B
:1002A0008FEF9FEF0895FC01918D228D892F90E0B3
:1002B000805C9F4F821B91098F739927089584E07A
:1002C00092E00E94530121E0892B09F420E0822F63
:1002D000089580E090E0892B29F00E945F01811150
:1002E0000C9400000895FC01A48DA80FB92FB11D36
:1002F000A35ABF4F2C91848D90E001968F7399275C
:10030000848FA689B7892C93A089B1898C91837039
:1003100080648C93938D848D981306C00288F38932
:10032000E02D80818F7D80830895EF92FF920F935F
:100330001F93CF93DF93EC0181E0888F9B8D8C8D91
:1003400098131AC0E889F989808185FF15C09FB785
:10035000F894EE89FF896083E889F9898081837048
:10036000806480839FBF81E090E0DF91CF911F91F7
:100370000F91FF90EF900895F62E0B8D10E00F5F18
:100380001F4F0F731127E02E8C8D8E110CC00FB6EE
:1003900007FCFACFE889F989808185FFF5CFCE0186
:1003A0000E947301F1CFEB8DEC0FFD2FF11DE35A8D
:1003B000FF4FF0829FB7F8940B8FEA89FB89808109
:1003C0008062CFCFCF93DF93EC01888D8823B9F083
:1003D000AA89BB89E889F9898C9185FD03C0808150
:1003E00086FD0DC00FB607FCF7CF8C9185FFF2CFCD
:1003F000808185FFEDCFCE010E947301E9CFDF91AF
:10040000CF9108952091A801260F3327331F213261
:100410003105ECF42091CC01FC0190E080E0243027
:1004200069F082E00895A091A8012191AC0148579C
:100430005E4FA40FB52FB11D2C930196861798F32C
:100440008091A801680F6093A80180E0089581E081
:1004500008951092CC0181E08093CE011092CD01DD
:1004600061E082E10E94820061E083E10E948200FB
:10047000E9EBF0E080818E7F808380818D7F8083B7
:1004800088E48093B80085E48093BC000895CF93FE
:10049000DF9391E0909387018823B9F0C091B80071
:1004A000D091BA008091BC008A7B8093BC0060E050
:1004B00082E10E94820060E083E10E9482000E944B
:1004C0002902D093BA00C093B800DF91CF9108956C
:1004D0000895E091F9018091F801E81730F4F0E017
:1004E000EE59FE4F808190E008958FEF9FEF0895C1
:1004F0009091F9018091F8012FEF3FEF981748F4A0
:10050000E92FF0E0EE59FE4F208130E09F5F90939D
:10051000F901C90108958091F8019091F901891BB1
:10052000990B0895CF92DF92EF92FF920F931F9352
:10053000CF93DF937C01CB018A01209161012223BB
:1005400089F0EB016B01C40ED51ECC15DD0569F0F9
:100550006991D701ED91FC910190F081E02DC701E7
:100560000995F3CF642F0E940202C801DF91CF9159
:100570001F910F91FF90EF90DF90CF900895CF9350
:10058000DF931F92CDB7DEB76983209161012223EB
:10059000F9F02091F601203258F021E030E0FC0122
:1005A0003383228390E080E00F90DF91CF91089514
:1005B0008091F701E82FF0E0EF5BFE4F9981908387
:1005C0008F5F8093F7018093F60181E090E0ECCF9C
:1005D00061E0CE0101960E940202F7CF90E080E038
:1005E0000895FC0101900020E9F73197AF01481B05
:1005F000590BBC0184E092E00C94F5008F929F921D
:10060000AF92BF920F931F93CF93DF93CDB7DEB717
:10061000A1970FB6F894DEBF0FBECDBF19A242302E
:1006200008F44AE08E010F5D1F4F842E912CB12CEF
:10063000A12CA50194010E94C308E62FB901CA01AB
:10064000EA30F4F4E05DD801EE938D01232B242BE6
:10065000252B79F790E080E0109719F0CD010E94EA
:10066000F102A1960FB6F894DEBF0FBECDBFDF91A9
:10067000CF911F910F91BF90AF909F908F90089551
:10068000E95CE1CFCF92DF92EF92FF920F931F933D
:10069000CF9391E0909361019AE49093400110927E
:1006A000F7011092F601682F81EA92E00E94BF02E2
:1006B000C091F601C13208F091C00E94CE006B01DA
:1006C0007C018091CC01811164C082E08093CC01D7
:1006D00081E08093CE018FEF8093CB011092F001E7
:1006E000C093EF01A1E4B1E0EFECF1E080E0C813CA
:1006F000E7C01092F1018091F10184698093F101CA
:100700008091CD01813009F0DFC01092CD010E94AF
:10071000CE006B017C018091F1018093BB00809140
:10072000830190918401A0918501B0918601892B6C
:100730008A2B8B2B99F00E94CE000091830110919F
:10074000840120918501309186016C197D098E0903
:100750009F090617170728073907E0F18091BC00A9
:1007600083FDD9CF85EC8093BC000E94CE006B0145
:100770007C018091CC01823009F4A8C08091CB012A
:100780008F3F61F18091CB01803241F18091CB01AB
:1007900025C08091830190918401A0918501B09141
:1007A0008601892B8A2B8B2B09F48BCF0E94CE00DC
:1007B000009183011091840120918501309186017F
:1007C0006C197D098E099F09061717072807390735
:1007D00008F077CF809182010E9447021092F701C2
:1007E0001092F601109261010E94CE006B017C0113
:1007F0008091CC0181118CC081E08093CC018093E9
:10080000CE019FEF9093CB011092F0011092EF0177
:100810008093F1018091F10184698093F1018091CD
:10082000CD01813009F0AAC01092CD010E94CE0006
:100830006B017C018091F1018093BB008091830169
:1008400090918401A0918501B0918601892B8A2B1A
:100850008B2BA1F00E94CE000091830110918401A6
:1008600020918501309186016C197D098E099F09BF
:10087000061717072807390708F46BC08091BC00DA
:1008800083FDD8CF85EC8093BC000E94CE006B0125
:100890007C018091CC01813009F472C08091F0011B
:1008A000811190C08091F001AFECB1E0E2E6F1E09F
:1008B00090E0981709F452C02D9121939F5FF9CFD2
:1008C0009D9191938F5F13CF85EE4DCF80918301E2
:1008D00090918401A0918501B0918601892B8A2B8A
:1008E0008B2B09F446CF0E94CE000091830110911A
:1008F000840120918501309186016C197D098E0952
:100900009F09061717072807390708F032CF62CF6B
:100910008091830190918401A0918501B09186011D
:10092000892B8A2B8B2B09F463CF0E94CE00009178
:1009300083011091840120918501309186016C1909
:100940007D098E099F09061717072807390708F040
:100950004FCF809182010E94470280E01092F901FE
:100960008093F80181EA92E00E947802CF911F9172
:100970000F91FF90EF90DF90CF90089585EE83CF99
:100980008091830190918401A0918501B0918601AD
:10099000892B8A2B8B2B09F47CCF0E94CE000091EF
:1009A00083011091840120918501309186016C1999
:1009B0007D098E099F09061717072807390708F0D0
:1009C00068CFC7CF81E070CF85ED8093BC00809168
:1009D000830190918401A0918501B09186010796D1
:1009E000A11DB11D23E0B695A795979587952A95EA
:1009F000D1F72091BC0024FD03C01092CC010895D2
:100A0000409183015091840160918501709186012C
:100A1000452B462B472B69F30097A105B10541F003
:100A200025E32A95F1F700000197A109B109E1CF6B
:100A3000809182010C9447021F920F920FB60F9281
:100A400011242F933F938F939F93AF93BF938091E4
:100A5000FC019091FD01A091FE01B091FF01309148
:100A6000FB0123E0230F2D3758F50196A11DB11D81
:100A70002093FB018093FC019093FD01A093FE0164
:100A8000B093FF018091000290910102A0910202B7
:100A9000B09103020196A11DB11D809300029093B5
:100AA0000102A0930202B0930302BF91AF919F9104
:100AB0008F913F912F910F900FBE0F901F9018951F
:100AC00026E8230F0296A11DB11DD2CF1F920F92CF
:100AD0000FB60F9211242F933F934F935F936F9311
:100AE0007F938F939F93AF93BF93EF93FF9384E094
:100AF00092E00E947301FF91EF91BF91AF919F919E
:100B00008F917F916F915F914F913F912F910F90B6
:100B10000FBE0F901F9018951F920F920FB60F9255
:100B200011242F938F939F93EF93FF93E0911402DF
:100B3000F09115028081E0911A02F0911B0282FD72
:100B40001BC0908180911D028F5F8F7320911E02C8
:100B5000821741F0E0911D02F0E0EC5FFD4F958FB0
:100B600080931D02FF91EF919F918F912F910F9094
:100B70000FBE0F901F9018958081F4CF1F920F9297
:100B80000FB60F9211242F933F934F935F936F9360
:100B90007F938F939F93AF93BF93EF93FF93809136
:100BA000B900887F803609F44AC0F0F5883209F42C
:100BB000A7C018F5803109F49BC0B8F4882309F464
:100BC000F9C0883009F494C0FF91EF91BF91AF91C3
:100BD0009F918F917F916F915F914F913F912F9155
:100BE0000F900FBE0F901F901895883109F488C0A0
:100BF000803251F78093CB0114C0803409F49DC03A
:100C000040F48033B9F38833F9F68093CB0185EC57
:100C1000B0C0803509F485C0883509F496C08834A1
:100C200099F60E94E404D0CF883909F48CC038F5D5
:100C3000883729F050F4883611F0803729F683E0A0
:100C40008093CC011092CA0157C0883809F47BC048
:100C5000803919F0803809F0B7CF8091CA0180320D
:100C600008F071C0E091CA0181E08E0F8093CA0143
:100C70008091BB00F0E0E655FE4F80833DC0803B95
:100C800039F0E0F4803A09F479C0883A09F09CCF51
:100C900084E08093CC011092A9011092A801E09108
:100CA000F401F091F50109958091A80181110FC01F
:100CB00081E08093A8011092880109C0803C09F46A
:100CC000A6CF883C09F4A3CF883B09F07DCFE09103
:100CD000A90181E08E0F8093A901F0E0E857FE4F53
:100CE00080818093BB009091A9018091A80129C0C7
:100CF0008091F1018093BB0085EC8093BC0064CFB0
:100D00009091F0018091EF01981758F5E091F00172
:100D100081E08E0F8093F001F0E0E153FE4F80817F
:100D2000E9CFE091F00181E08E0F8093F001809196
:100D3000BB00F0E0E153FE4F80839091F001809181
:100D4000EF019817C8F285E8D8CFE091F00181E073
:100D50008E0F8093F0018091BB00F0E0E153FE4FD5
:100D600080838091CE0181115CCF81E08093CD01A1
:100D700084EA8093BC001092CC0126CF85EC80934E
:100D8000BC001092CC018091CA01803230F4E09115
:100D9000CA01F0E0E655FE4F10826091CA0170E092
:100DA000E091F201F091F3018AEA91E00995109245
:100DB000CA010ACF1092CB0134CFE4E0F2E01382F3
:100DC000128288EE93E0A0E0B0E084839583A6834E
:100DD000B78324E031E03183208325EC30E0358790
:100DE000248724EC30E03787268720EC30E0318BF5
:100DF000208B21EC30E0338B228B22EC30E0358BE2
:100E0000248B26EC30E0378B268B118E128E138EBE
:100E1000148EE1EAF2E01382128284839583A68322
:100E2000B78386E191E0918380830895789484B5B7
:100E3000826084BD84B5816084BD85B5826085BDD6
:100E400085B5816085BD80916E00816080936E0064
:100E50001092810080918100826080938100809156
:100E60008100816080938100809180008160809307
:100E700080008091B10084608093B1008091B000C7
:100E800081608093B00080917A00846080937A00C2
:100E900080917A00826080937A0080917A008160EC
:100EA00080937A0080917A00806880937A00109213
:100EB000C1001092F9011092F8011092F7011092FE
:100EC000F6010E94290283EF90E09093F501809350
:100ED000F40184EF90E09093F3018093F201E091AC
:100EE0001402F091150282E08083E0911002F091EB
:100EF00011021082E0911202F09113028FEC8083B4
:100F000010921C02E0911802F091190286E0808391
:100F1000E0911602F0911702808180618083E09158
:100F20001602F0911702808188608083E09116029A
:100F3000F0911702808180688083E0911602F09121
:100F4000170280818F7D808384E291E00E94F1020C
:100F50006091FA0170E090E080E04AE00E94FE02B9
:100F600080E391E00E94F102C0E0D0E080E00E94C6
:100F70004203F82E82E00E944203682F70E094E062
:100F8000759567959A95E1F7072E000C880B990BDC
:100F90000E94950920E030E040E85DE30E944A0AA3
:100FA0004B015C016F2D70E090E080E00E9495099C
:100FB0009B01AC01C501B4010E94EC080E945D09CF
:100FC000072E000C880B990B0E9495096B017C0180
:100FD0004B015C018DEF0E9442038093FA01A7014F
:100FE0009601C701B6010E94B70A8823C1F183E3C5
:100FF00091E00E94F10280E391E00E94F1020E94E0
:10100000CE004B015C0184EFC82EDD24D394E12C8B
:10101000F12C0E94CE00681979098A099B09683E63
:10102000734081059105A8F321E0C21AD108E108B7
:10103000F10888EE880E83E0981EA11CB11CC11433
:10104000D104E104F10429F7209709F48FCF0E941D
:101050005F01882309F48ACF0E94000087CF260110
:101060003701E89477F82FEF3FEF4FE75FE7C301D1
:10107000B2010E94B70A81110DC02FEF3FEF4FE779
:101080005FE7C301B2010E94580918161CF487E3F8
:1010900091E0AFCF2FEF3FEF4FE75FE4C701B6011D
:1010A0000E94450A18161CF48BE391E0A2CF2FEFA3
:1010B0003FEF4FE75FECC701B6010E94580987FD7B
:1010C000F3CF20E030E0A901C701B6010E94580922
:1010D00087FF0BC06DE284E092E00E94950146011B
:1010E0005701B7FAB094B7F8B0942AE037ED43EA65
:1010F0005BE3C501B4010E94EC084B015C010E9456
:1011000064096B017C010E9493099B01AC01C5013C
:10111000B4010E94EB084B015C014AE0C701B60133
:101120000E94FE026EE284E092E00E94950120E0BF
:1011300030E040E251E4C501B4010E944A0A4B018B
:101140005C010E9464096B01F12CE12C4AE0C701AB
:10115000B6010E94FE02C701B6010E9493099B01DD
:10116000AC01C501B4010E94EB0820E030E040E290
:1011700051E40E944A0A0E94640990E080E04AE03B
:101180000E94FE0238CFA1E21A2EAA1BBB1BFD0152
:101190000DC0AA1FBB1FEE1FFF1FA217B307E40756
:1011A000F50720F0A21BB30BE40BF50B661F771FAE
:1011B000881F991F1A9469F760957095809590958E
:1011C0009B01AC01BD01CF010895EE0FFF1F0590FB
:1011D000F491E02D09945058BB27AA270E940309D7
:1011E0000C940B0A0E94FD0938F00E94040A20F0BA
:1011F00039F49F3F19F426F40C94FA090EF4E095A3
:10120000E7FB0C94F409E92F0E941C0A58F3BA1763
:10121000620773078407950720F079F4A6F50C940C
:101220003E0A0EF4E0950B2EBA2FA02D0B01B9014A
:1012300090010C01CA01A0011124FF27591B99F04C
:10124000593F50F4503E68F11A16F040A22F232F58
:10125000342F4427585FF3CF469537952795A795A8
:10126000F0405395C9F77EF41F16BA0B620B730B4F
:10127000840BBAF09150A1F0FF0FBB1F661F771FC0
:10128000881FC2F70EC0BA0F621F731F841F48F475
:10129000879577956795B795F7959E3F08F0B0CFFE
:1012A0009395880F08F09927EE0F979587950895E5
:1012B0000E94D00908F481E008950E9464096894AE
:1012C000B1110C943F0A08950E94240A88F09F5798
:1012D00098F0B92F9927B751B0F0E1F0660F771F5A
:1012E000881F991F1AF0BA95C9F714C0B13091F050
:1012F0000E943E0AB1E008950C943E0A672F782FB1
:101300008827B85F39F0B93FCCF386957795679514
:10131000B395D9F73EF490958095709561957F4F80
:101320008F4F9F4F0895E89409C097FB3EF4909526
:101330008095709561957F4F8F4F9F4F9923A9F0AE
:10134000F92F96E9BB279395F6958795779567953D
:10135000B795F111F8CFFAF4BB0F11F460FF1BC081
:101360006F5F7F4F8F4F9F4F16C0882311F096E914
:1013700011C0772321F09EE8872F762F05C06623C2
:1013800071F096E8862F70E060E02AF09A95660F7B
:10139000771F881FDAF7880F9695879597F9089534
:1013A000990F0008550FAA0BE0E8FEEF1616170676
:1013B000E807F907C0F012161306E407F50798F0DE
:1013C000621B730B840B950B39F40A2661F0232BF7
:1013D000242B252B21F408950A2609F4A140A69573
:1013E0008FEF811D811D089597F99F6780E870E058
:1013F00060E008959FEF80EC089500240A9416168B
:10140000170618060906089500240A9412161306F2
:10141000140605060895092E0394000C11F4882380
:1014200052F0BB0F40F4BF2B11F460FF04C06F5F9C
:101430007F4F8F4F9F4F089557FD9058440F551F72
:1014400059F05F3F71F04795880F97FB991F61F046
:101450009F3F79F087950895121613061406551FBD
:10146000F2CF4695F1DF08C0161617061806991F29
:10147000F1CF86957105610508940895E894BB271E
:1014800066277727CB0197F908950E94D00908F4C1
:101490008FEF08950E945D0A0C940B0A0E94FD09CB
:1014A00038F00E94040A20F0952311F00C94F409FE
:1014B0000C94FA0911240C943F0A0E941C0A70F340
:1014C000959FC1F3950F50E0551F629FF001729FE9
:1014D000BB27F00DB11D639FAA27F00DB11DAA1FF8
:1014E000649F6627B00DA11D661F829F2227B00D45
:1014F000A11D621F739FB00DA11D621F839FA00DD0
:10150000611D221F749F3327A00D611D231F849F1F
:10151000600D211D822F762F6A2F11249F57504076
:101520009AF0F1F088234AF0EE0FFF1FBB1F661FF1
:10153000771F881F91505040A9F79E3F510580F0BA
:101540000C94F4090C943F0A5F3FE4F3983ED4F303
:10155000869577956795B795F795E7959F5FC1F75E
:10156000FE2B880F911D9695879597F908950E94F7
:0C157000D009880B990B0895F894FFCF68
:10157C00000000009501F5002201E2015301310148
:10158C00450100000000BF029202EE0268028B02CD
:10159C007802690253656E736F722049443A2000D9
:1015AC000D0A006E616E00696E66006F7666000053
:00000001FF
