:100000000C945D000C9485000C9485000C94850084
:100010000C9485000C9485000C9485000C9485004C
:100020000C9485000C9485000C9485000C9485003C
:100030000C9485000C9485000C9485000C9485002C
:100040000C94610E0C9485000C94D10E0C94AB0EA4
:100050000C9485000C9485000C9485000C9485000C
:100060000C94030F0C9485000000000800020100AE
:100070000003040700000000000000000000000072
:10008000250028002B0000000000240027002A0083
:10009000040404040404040402020202020203032E
:1000A0000303030301020408102040800102040836
:1000B0001020010204081020221011241FBECFEFCF
:1000C000D8E0DEBFCDBF23E0A0E1B2E001C01D92C9
:1000D000A239B207E1F712E0A0E0B1E0ECEEF3E202
:1000E00002C005900D92A031B107D9F710E0CDE51F
:1000F000D0E004C02197FE010E94E911CC35D10760
:10010000C9F70E9476100C94F4110C94000090E052
:10011000FC01EC55FF4F249180579F4FFC018491C7
:10012000882399F090E0880F991FFC01EA57FF4F50
:10013000A591B491FC01E458FF4F859194918FB73C
:10014000F894EC91E22BEC938FBF08958CBD9DBD8C
:10015000089590E0FC01E859FF4F2491FC01EC5513
:10016000FF4F3491FC01E057FF4FE491EE23C9F0BB
:10017000222339F0233001F1A8F4213019F1223083
:1001800029F1F0E0EE0FFF1FE458FF4FA591B49165
:100190008FB7F894EC91611126C030953E233C93C3
:1001A0008FBF08952730A9F02830C9F0243049F7CF
:1001B000809180008F7D03C0809180008F77809335
:1001C0008000DFCF84B58F7784BDDBCF84B58F7D92
:1001D000FBCF8091B0008F778093B000D2CF809119
:1001E000B0008F7DF9CF3E2BDACF3FB7F8948091E6
:1001F000620290916302A0916402B091650226B5FB
:10020000A89B05C02F3F19F00196A11DB11D3FBF4E
:10021000BA2FA92F982F8827BC01CD01620F711D1D
:10022000811D911D42E0660F771F881F991F4A9517
:10023000D1F708958F929F92AF92BF92CF92DF92A3
:10024000EF92FF924B015C010E94F5006B017C0173
:100250000E94F5006C197D098E099F09683E734064
:1002600081059105A8F321E0821A9108A108B1083F
:1002700088EEC80E83E0D81EE11CF11C81149104A5
:10028000A104B10429F7FF90EF90DF90CF90BF90C9
:10029000AF909F908F90089508950895AF92BF9268
:1002A000CF92DF92EF92FF920F931F93CF93DF9342
:1002B0006C017B018B01040F151FEB015E01AE1871
:1002C000BF08C017D10759F06991D601ED91FC9193
:1002D0000190F081E02DC6010995892B79F7C501C0
:1002E000DF91CF911F910F91FF90EF90DF90CF9012
:1002F000BF90AF900895FC01538D448D252F30E0C1
:10030000842F90E0821B930B541710F0CF96089522
:1003100001970895FC01918D828D981761F0A28D4F
:10032000AE0FBF2FB11D5D968C91928D9F5F9F7315
:10033000928F90E008958FEF9FEF0895FC01918DCB
:10034000828D981731F0828DE80FF11D858D90E038
:1003500008958FEF9FEF0895FC01918D228D892FD5
:1003600090E0805C9F4F821B91098F7399270895BD
:1003700088ED92E00E94AC0121E0892B09F420E095
:10038000822F089580E090E0892B29F00E94B80127
:1003900081110C9400000895FC01A48DA80FB92FC1
:1003A000B11DA35ABF4F2C91848D90E001968F739D
:1003B0009927848FA689B7892C93A089B1898C91BC
:1003C000837080648C93938D848D981306C002880B
:1003D000F389E02D80818F7D80830895EF92FF92D5
:1003E0000F931F93CF93DF93EC0181E0888F9B8D58
:1003F0008C8D98131AC0E889F989808185FF15C012
:100400009FB7F894EE89FF896083E889F989808134
:100410008370806480839FBF81E090E0DF91CF9103
:100420001F910F91FF90EF900895F62E0B8D10E025
:100430000F5F1F4F0F731127E02E8C8D8E110CC094
:100440000FB607FCFACFE889F989808185FFF5CFDF
:10045000CE010E94CC01F1CFEB8DEC0FFD2FF11DF1
:10046000E35AFF4FF0829FB7F8940B8FEA89FB891C
:1004700080818062CFCFCF93DF93EC01888D88237A
:10048000B9F0AA89BB89E889F9898C9185FD03C0F7
:10049000808186FD0DC00FB607FCF7CF8C9185FFDC
:1004A000F2CF808185FFEDCFCE010E94CC01E9CF54
:1004B000DF91CF910895DB014330C8F0FC018485C2
:1004C00043E050E0481B510920E0822F90E0841760
:1004D0009507ECF43C912330B0F4885E9E4FFC010C
:1004E0009081832F892389F0909593230AC02C91C2
:1004F000E42FF0E0E85EFE4F9081822F89239095F3
:1005000092239C93089590E0ECCF2F5FDECF80E0A4
:100510000895FB019081892F817090FF03C09E7F19
:1005200090830895892F82709C7FFACF08958EBDA5
:1005300000000DB407FEFDCF8EB508952F923F92B7
:100540004F925F926F927F928F929F92AF92BF92E3
:10055000CF92DF92EF92FF920F931F93CF93DF938F
:1005600000D000D0CDB7DEB73C01962E5A0119015C
:10057000280160E0FC0180850E94A900892D0E946D
:1005800097028E010F5F1F4F4E01F5E08F0E911CF9
:1005900080E00E949702F80181938F01E815F90528
:1005A000B9F72A818981F8E08F9FC0011124422F79
:1005B00050E065E0559547956A95E1F7840F951FE2
:1005C000092E000CAA0BBB0BF50180839183A2833B
:1005D000B383F101108223FF3AC0F501808191813C
:1005E000A281B38132E0880F991FAA1FBB1F3A95E1
:1005F000D1F72370820F911DA11DB11D80839183BE
:10060000A283B38380819181A281B381BA2FA92F64
:10061000982F88272B81820F911DA11DB11D8083EA
:100620009183A283B38380819181A281B381BA2F08
:10063000A92F982F88272C81820F911DA11DB11DF4
:1006400080839183A283B38381E0F101808380E082
:100650000E949702982F9F70F701908386FB88274E
:1006600080F9F201808310E000E0F7018081081733
:1006700070F40830110559F05601A00EB11E80E04B
:100680000E949702F50180830F5F1F4FEECF61E05C
:10069000F30180850F900F900F900F90DF91CF9115
:1006A0001F910F91FF90EF90DF90CF90BF90AF9090
:1006B0009F908F907F906F905F904F903F902F9082
:1006C0000C94A9006F927F928F929F92AF92BF92EB
:1006D000CF92DF92EF92FF920F931F93CF93DF930E
:1006E000EC015A014901380160FF23C060E9CE01E5
:1006F0000E949E02F30180818F83F40180818A83AE
:10070000F50180819181A281B3818B839C83AD832C
:10071000BE8380E0DF91CF911F910F91FF90EF900A
:10072000DF90CF90BF90AF909F908F907F906F9011
:10073000089561FF02C064E9DACFF701108284E016
:10074000E9CF6F927F928F929F92AF92BF92CF929A
:10075000DF92EF92FF920F931F93CF93DF9300D01E
:1007600000D0CDB7DEB74C01162F902F02E46134D4
:1007700039F004E4613521F000E4613309F000E070
:1007800080E4E11001C080E0DC2CD82A913009F02F
:1007900047C02C833B839A0144275527822F8370BF
:1007A0008860922F990F990F990F907E892B8A83D9
:1007B00075E0369527957A95E1F7298380E590E0F5
:1007C0000E94A60060E0F40180850E94A900802FAD
:1007D0000E949702CE0101967C013E0195E0690ED0
:1007E000711CF70181917F010E949702E614F704C2
:1007F000C1F78D2D0E949702D12CF12CE12CCE1443
:10080000DF04E1F0F8E0EF16F104C1F0F501EE0DC0
:10081000FF1D80810E9497028FEFE81AF80AEFCF40
:10082000C90133E0969587953A95E1F7898322953A
:10083000220F207E2A831C821B82C0CF61E0F4013C
:1008400080850E94A90080E590E00E94A60060E0FB
:10085000F40180850E94A90082E8113439F084E80F
:10086000113521F081E8113309F080E00E949702F0
:1008700061E0F40180850F900F900F900F90DF9151
:10088000CF911F910F91FF90EF90DF90CF90BF908D
:10089000AF909F908F907F906F900C94A900DF9203
:1008A000EF92FF920F931F93CF93DF9300D000D06E
:1008B000CDB7DEB77C01D62E413009F040C00C83A5
:1008C0001B83890122273327802F83708860902F14
:1008D000990F990F990F907E892B8A8355E0169571
:1008E00007955A95E1F7098380E590E00E94A600FC
:1008F00060E0F70180850E94A90082E00E949702D3
:100900008D2D0E94970289810E9497028A810E9400
:1009100097028B810E9497028C810E94970261E06E
:10092000F70180850F900F900F900F90DF91CF917E
:100930001F910F91FF90EF90DF900C94A900C801D8
:1009400023E0969587952A95E1F789830295000F14
:10095000007E0A831C821B82C7CF1F93CF93DF9335
:10096000EC0180E590E00E94A60060E088850E948E
:10097000A90080EA0E94970280E00E949702182F47
:1009800061E088850E94A900812FDF91CF911F919E
:1009900008950E94AD04837011F484E0089583E00B
:1009A00008950E94AD04982F9B7A292F30E09595E9
:1009B0009595959590718370982BA90155954795BC
:1009C0004470942B35952795359527952870892F58
:1009D000822B0895FF920F931F93CF93DF93EC0127
:1009E000F62E042F122F80E590E00E94A60060E012
:1009F00088850E94A90085E00E9497028F2D0E94A1
:100A00009702802F0E949702812F0E94970261E037
:100A10008885DF91CF911F910F91FF900C94A900D1
:100A2000662321F0613061F080E0089520E14130DB
:100A300009F020E040E16CE00E94EA0481E00895C2
:100A400020E2413009F020E040E2F5CF462F4C7122
:100A500021F020E06CE20C94EA0408954F925F923A
:100A60006F927F92AF92BF92CF92EF920F931F93AC
:100A7000CF93DF93ECEFE60FED3010F5F0E0EB5F96
:100A8000FE4F10811123E1F029013A01462FEC01BC
:100A900020E06CE20E94EA04A3019201612FCE01E2
:100AA0000E94A10380E0DF91CF911F910F91EF9001
:100AB000CF90BF90AF907F906F905F904F900895D0
:100AC00082E0F1CF0F931F93CF93DF93EC018B0163
:100AD0000E94AD048475F8011082843591F19C85E3
:100AE00063E070E0691B710990E0292F30E0261760
:100AF00037073CF54FEF933020F4F901EB5EFE4FE2
:100B000040814823E1F480E5933020F4F901EE5E62
:100B1000FE4F80818F5FF801808340E0933020F4A6
:100B2000285E3E4FF901408120E06CE2CE010E9438
:100B3000EA0480E0DF91CF911F910F9108959F5FAC
:100B4000D4CF82E0F7CF4F925F926F927F928F92D5
:100B50009F92AF92BF92CF92DF92EF920F931F932B
:100B6000CF93DF931F92CDB7DEB74C012A013B0133
:100B7000122F82E08A15C8F11982C4010E94AD04C7
:100B80002A2D30E0F901EB5EFE4F9081892391F030
:100B900082E00F90DF91CF911F910F91EF90DF9046
:100BA000CF90BF90AF909F908F907F906F905F900D
:100BB0004F900895F901EE5EFE4F80818F5F89832B
:100BC000F901E85EFE4F20E040816CE2C4010E9422
:100BD000EA045601CE2CE02E012FA3019201698177
:100BE000C4010E94A10380E0D4CFBE016F5F7F4F9C
:100BF000C4010E946205882361F3CACF20E061111D
:100C000020E440E46BE20C94EA040F931F93CF932B
:100C1000DF93EC01062F142F80E590E00E94A600E0
:100C200060E088850E94A90082E00E949702802FE0
:100C30000E949702812F0E94970261E08885DF91D0
:100C4000CF911F910F910C94A9001F93CF93DF9325
:100C5000EC01162F80E590E00E94A60060E08885F8
:100C60000E94A90083E00E949702812F0E949702B0
:100C700080E00E949702182F61E088850E94A900F9
:100C8000812FDF91CF911F9108956230D1F030F420
:100C9000662351F0613071F080E008956330C1F057
:100CA0006430D1F76DE007C06CE00E9425068295A4
:100CB000817008956CE00E94250685FB882780F9E5
:100CC00008956DE00E94250683FB882780F908952A
:100CD0006DE0EBCFCF93DF93EB016DE20E94250631
:100CE000209709F08883887F09F085E0DF91CF9114
:100CF00008952F923F924F925F926F927F928F92C0
:100D00009F92AF92BF92CF92DF92EF92FF920F939A
:100D10001F93CF93DF931F92CDB7DEB74C012A010B
:100D20003B01222E302EFA2CFC0143825482658234
:100D300076822283078310E000E093E2A92EB12C93
:100D4000BE016F5F7F4FC4010E9462050F5F1F4F9E
:100D5000823049F40233110511F486E014C0C50154
:100D60000197F1F7EDCF02331105B9F35601CE2CFF
:100D7000E32C022DA30192016981C4010E94A10309
:100D8000F11026C080E00F90DF91CF911F910F915D
:100D9000FF90EF90DF90CF90BF90AF909F908F909B
:100DA0007F906F905F904F903F902F900895C70174
:100DB0000197F1F70F5F1F4F69816150C4010E94D5
:100DC000250683FF0BC00233110589F787E0DBCFCF
:100DD00010E000E083E2E82EF12CECCF02331105A5
:100DE00089F6F4CFAF92CF92DF92EF920F930E94E9
:100DF00079060F91EF90DF90CF90AF900895AF926A
:100E0000CF92DF92EF920F93AA24A3946A01EE246B
:100E1000E39400E020E0AB01BC0185E893E00E9490
:100E200079060F91EF90DF90CF90AF9008951F93C8
:100E3000CF93DF93EC01162F6BE20E942506482F1B
:100E4000112341F04C616BE2CE01DF91CF911F91F4
:100E50000C940506437EF7CFCF92DF92EF92FF927C
:100E60001F93CF93DF93EC01162F8FB7F894C090A8
:100E70005E02D0905F02E0906002F09061028FBF4E
:100E8000212F40EE6FE0CE010E94EA046EE0CE0119
:100E90000E942506807E1817E9F02FB7F8948091FC
:100EA0005E0290915F02A0916002B09161022FBF3B
:100EB0008C199D09AE09BF09893C9105A105B105B1
:100EC000F8F281E0DF91CF911F91FF90EF90DF90DA
:100ED000CF90089580E0F6CF0F931F93CF93DF93C9
:100EE000EC01162FE881F9810488F589E02D099538
:100EF000803221F5103211F16BE2CE010E942506FD
:100F0000082F007486FD06C020E440E46BE2CE01A9
:100F10000E94EA0420E440E46CE2CE010E94EA046C
:100F200060E6CE010E942C07811116C0011106C097
:100F300020E040E46BE2CE010E94EA0420E040E4BD
:100F40006CE2CE010E94EA04612FCE01DF91CF91C5
:100F50001F910F910C942C0781E0DF91CF911F918D
:100F60000F9108951F93CF93DF93EC01142F6230FC
:100F7000D9F130F46623A9F0613049F110E01FC0C7
:100F8000633009F453C06430C9F760E80E946C070D
:100F900081112FC0113009F457C01330A9F520E09A
:100FA00054C0413089F020F0423041F724E00DC0B8
:100FB00020E044E06CE0CE010E94EA0411E0812FC1
:100FC000DF91CF911F91089525E045E0F3CF4130A7
:100FD00041F020F0423091F628E004C020E048E0E3
:100FE000E9CF2AE04AE0E6CF60E80E946C07882358
:100FF00039F06AE070E080E090E00E941A01BECF14
:10100000113021F0133081F010E007C021E041E001
:101010006DE0CE010E94EA0411E06B85CE010E94D2
:101020006C07882361F2E5CF20E0F1CF60E80E94F1
:101030006C078111DECF113021F0133029F720E049
:1010400001C022E042E0E4CF24E044E0E1CF8F920F
:101050009F92AF92BF92EF92FF920F931F93CF9305
:10106000DF93EC01F62EE42E480159016AE070E0AE
:1010700080E090E00E941A0160E8CE010E946C07B7
:10108000182F882391F06AE070E080E090E00E94E1
:101090001A01812FDF91CF911F910F91FF90EF9057
:1010A000BF90AF909F908F90089582E0F81639F12D
:1010B0008F1558F0FF20B1F081E0F816D9F06B855C
:1010C000CE010E946C07182FDECF84E0F81609F1DC
:1010D000F816D0F085E0F812F2CF950184014E2D7C
:1010E00068E104C0950184014E2D60E0CE010E94AC
:1010F0004F04E5CF950184014E2D64E0F7CF9501B3
:1011000084014E2D68E0F2CF950184014E2D60E1FF
:10111000EDCF950184014E2D64E1E8CF8F929F922F
:10112000AF92BF92EF92FF920F931F93CF93DF93F3
:10113000EC01E62EF42E480159016AE070E080E0EF
:1011400090E00E941A0160E8CE010E946C07182FFF
:10115000882391F06AE070E080E090E00E941A013C
:10116000812FDF91CF911F910F91FF90EF90BF9052
:10117000AF909F908F900895E1100DC0950184016C
:101180004F2D60E2CE010E944F046B85CE010E947C
:101190006C07182FDFCF81E0E812F7CF95018401AB
:1011A0004F2D64E2EFCFEF92FF921F93CF93DF9327
:1011B0007C01C42FD22F1FB7F89480915402811163
:1011C00024C0EAE9F0E08491EEEAF0E09491E82F9F
:1011D000F0E0EE0FFF1FEA57FF4FA591B491EC919D
:1011E000E92321F461E08AE00E94A9008AE00E94DC
:1011F00087008CB580618CBD8CB580648CBD8DE022
:101200000E9487008BE00E948700809154028F5FCC
:10121000809354021FBF80E590E00E94A60060E02A
:10122000D70118968C910E94A90080EC0E94970229
:1012300061E0F70180850E94A9006AE070E080E02B
:1012400090E00E941A0160E8C7010E946C07182F05
:101250006AE070E080E090E0112361F00E941A01E2
:1012600081E0111101C080E0DF91CF911F91FF90CB
:10127000EF9008950E941A01D23009F4ADC0D33026
:1012800009F4F3C0D13009F07AC0C150C33108F07D
:1012900076C0EC2FF0E0E15BF64F0C94E911740A94
:1012A0007F0A6209820A660969096D09C409C709CA
:1012B000CB09CE09D109D409D709DB09DF09E20935
:1012C000E509E909C7E8DFEF1FE00AC0C5E8D1EF8B
:1012D000FBCFC7E0DEEB19E003C0C7E8DFEF17E0A4
:1012E000412F6AE2C7010E9405064D2F69E2C7013E
:1012F0000E9405064C2F68E2C7010E9405066AE0BD
:1013000070E080E090E00E941A01C0E340E06C2FA2
:10131000C7010E94050660E16C0F40E0C7010E9412
:10132000050660E26C0F40E0C7010E940506CF5F32
:10133000CE3361F740E060E6C7010E94050640E059
:1013400060E7C7010E94050643E06BE2C7010E9407
:10135000050624E044E660E6C7010E94EA0420E0B6
:1013600040E660E7C7010E94EA04D701ED91FC91D5
:101370000288F389E02D60E0C7010995182F6AE023
:1013800070E080E090E06ACFC7E8DAEFA8CFC7E866
:10139000DFEF13E0A5CFC7E0DEEBFBCFC7E0DDEA70
:1013A000F8CFC7E8DAEFF5CFC6E8D0EFF2CFC7E85D
:1013B000DAEF11E095CFC5E8D1EF11E491CFC6E89F
:1013C000D0EF8ECFC4E0D0EA8BCFC2E0D2E910E4F8
:1013D00087CFC2E8D0ED84CFC350C13180F6EC2F67
:1013E000F0E0EB50F64F0C94E911780A850A060AF2
:1013F0000A0A0E0A110A150A190A1C0A200A230AE7
:10140000260A290A2C0A2F0ABF09320AC3E0DCEA9D
:101410001BE066CFC2E0D4EA1CE062CFC3E0D4EAAE
:101420005ACFC4E0D6EB15E05BCFC3E0D4EA14E0BA
:1014300057CFC3E0D5EBADCFC4E0DEEB12E050CF29
:10144000C4E0D6EBFBCFC6E0DFEBB3CFC3E0D4EA1A
:10145000B0CFC6E0DFEB44CFC2E0DBE941CFC1E073
:10146000D2E93ECFC1E0D8E83BCFC150C33108F04C
:1014700086CFEC2FF0E0E15CF54F0C94E9117B0A8C
:10148000880A520ABF09550ABF09580A5B0A5E0A50
:10149000BF09BF09600A630A660A690A6C0ABF09C4
:1014A0006F0A720AC7E0DFEB1ACFC4E0D4EA17CFA5
:1014B000C7E0DFEB6ECFC6E0D4EB6BCFC7E0C4CFA5
:1014C000C6E0D4EB76CFC5E0D1EB73CFC6E0D4EB6A
:1014D00007CFC5E0D1EB04CFC2E0D0E901CFC1E036
:1014E000D0E8FECEC0E0FCCFC7E8DFEF1FE3F8CEC8
:1014F000C5E0DFEB91CFC7E0DFEB1FE1F1CEC7E83E
:10150000DFEFFBCFC7E0DAEBDFCEC4E0D6EB80CF76
:10151000C7E0DFEBD9CE603211F0FC0163870C9499
:101520006C07CF93DF93EC01E881F9810488F5899A
:10153000E02D09956B85681729F0CE01DF91CF91D9
:101540000C946C0780E0DF91CF910895CF93DF93E7
:10155000EC01E881F9810488F589E02D0995803254
:1015600031F060E2CE01DF91CF910C946C0780E006
:10157000DF91CF9108956EE00E942506807E089548
:1015800020913102260F3327331F21323105ECF42D
:101590002091AE02FC0190E080E0243069F082E00E
:1015A0000895A09131022191AC014F5E5D4FA40FCF
:1015B000B52FB11D2C930196861798F380913102B7
:1015C000680F6093310280E0089581E008951092E1
:1015D000AE0281E08093AD021092880261E082E168
:1015E0000E94A90061E083E10E94A900E9EBF0E01C
:1015F00080818E7F808380818D7F808388E480934B
:10160000B80085E48093BC000895CF93DF9391E008
:10161000909310028823B9F0C091B800D091BA001D
:101620008091BC008A7B8093BC0060E082E10E94D4
:10163000A90060E083E10E94A9000E94E70AD0931C
:10164000BA00C093B800DF91CF9108958F929F9216
:10165000AF92BF92CF92DF92EF92FF920F931F93C0
:10166000CF93DF93D091D702D13208F0D7C0182F93
:10167000C091D6020E94F5006B017C018091AE0200
:1016800081116BC082E08093AE021093AD028FEFA8
:101690008093AC021092AB02D093AA02A6EBB2E008
:1016A000EAE8F2E080E0D81391C0109289028091BC
:1016B0008902CC0FC82BC0938902809188028130A7
:1016C00009F088C0109288020E94F5006B017C012D
:1016D000809189028093BB008091B0029091B10209
:1016E000A091B202B091B302892B8A2B8B2BA1F06F
:1016F0000E94F5000091B0021091B1022091B20257
:101700003091B3026C197D098E099F0906171707DE
:101710002807390708F442C08091BC0083FDD8CF68
:1017200085EC8093BC000E94F5006B017C018091E8
:10173000AE02823009F450C08091AC028F3F09F4B0
:101740006FC08091AC02803209F46CC08091AC0211
:10175000803309F469C084E026C08091B002909182
:10176000B102A091B202B091B302892B8A2B8B2BCC
:1017700009F484CF0E94F5008090B0029090B102ED
:10178000A090B202B090B3026C197D098E099F0936
:1017900086169706A806B90608F070CF8091AF02AA
:1017A0000E94050B85E01092B5021092D7021092AC
:1017B000B402DF91CF911F910F91FF90EF90DF90D6
:1017C000CF90BF90AF909F908F9008959D919193EF
:1017D0008F5F69CF85EEA5CF8091B0029091B10265
:1017E000A091B202B091B302892B8A2B8B2B09F402
:1017F0009ECF0E94F5000091B0021091B10220919D
:10180000B2023091B3026C197D098E099F09061747
:1018100017072807390708F08ACFC0CF81E0C3CF68
:1018200080E0C1CF82E0BFCF83E0BDCF0895E091DB
:10183000670280916602E81730F4F0E0E859FD4F46
:10184000808190E008958FEF9FEF08959091670257
:10185000809166022FEF3FEF981748F4E92FF0E0F0
:10186000E859FD4F208130E09F5F90936702C901E6
:1018700008958091660290916702891B990B0895E3
:10188000CF92DF92EF92FF920F931F93CF93DF934C
:101890007C01CB018A012091B402222389F0EB0163
:1018A0006B01C40ED51ECC15DD0569F06991D70119
:1018B000ED91FC910190F081E02DC7010995F3CFE6
:1018C000642F0E94C00AC801DF91CF911F910F9130
:1018D000FF90EF90DF90CF900895CF93DF931F920A
:1018E000CDB7DEB769832091B4022223F9F02091AD
:1018F000D702203258F021E030E0FC01338322830C
:1019000090E080E00F90DF91CF9108958091B50233
:10191000E82FF0E0EA54FD4F998190838F5F809328
:10192000B5028093D70281E090E0ECCF61E0CE0178
:1019300001960E94C00AF7CF90E080E00895AF9230
:10194000BF92CF92DF92EF92FF920F931F93CF93AC
:10195000DF93EC017B016A01E881F981A28CB38CF1
:1019600000A4F1A5E02D09958E01095F1F4F9E018E
:101970002E5F3F4FAE014D5F5F4F682FCE01F501E7
:101980000995DF91CF911F910F91FF90EF90DF901C
:10199000CF90BF90AF9008958F929F92AF92BF92D9
:1019A000CF92DF92EF92FF920F931F93CF93DF932B
:1019B000EC014B017A016901E881F981A28CB38CB9
:1019C00000A4F1A5E02D09958E01095F1F4F9E012E
:1019D0002E5F3F4FA401682FCE01F5010995DF91DD
:1019E000CF911F910F91FF90EF90DF90CF90BF901C
:1019F000AF909F908F90089582E00895633008F033
:101A000062E0FC0164870895FC0101900020E9F781
:101A10003197AF01481B590BBC0188ED92E00C9443
:101A20004E01CF92DF92EF92FF920F931F93CF93CD
:101A3000DF93A0918203B09183039091840321E00E
:101A40002093B4029093D6021092B5021092D7025E
:101A5000ED91FC9111970190F081E02D682FCD015F
:101A6000099581E00E94260BC82F882351F080E061
:101A7000DF91CF911F910F91FF90EF90DF90CF906A
:101A80000895D09184030E94F5006B017C01809140
:101A9000AE02811163C081E08093AE028093AD02FB
:101AA0009FEF9093AC021092AB021092AA02809327
:101AB000890280918902DD0FD82BD0938902809111
:101AC0008802813009F08DC0109288020E94F500D2
:101AD0006B017C01809189028093BB008091B002F0
:101AE0009091B102A091B202B091B302892B8A2BDE
:101AF0008B2BA1F00E94F5000091B0021091B10271
:101B00002091B2023091B3026C197D098E099F09B0
:101B1000061717072807390708F441C08091BC0051
:101B200083FDD8CF85EC8093BC000E94F5006B014B
:101B30007C018091AE02813009F455C08091AB02E6
:101B4000811173C08091AB02EAE8F2E0A8E6B2E04E
:101B5000C81749F191919D93CF5FFACF8091B00260
:101B60009091B102A091B202B091B302892B8A2B5D
:101B70008B2B09F48CCF0E94F5000091B0021091DC
:101B8000B1022091B2023091B3026C197D098E0925
:101B90009F09061717072807390708F078CF8091A3
:101BA000AF020E94050B10926702C09366028091FB
:101BB000820390918303DC01ED91FC910084F18517
:101BC000E02D0995892B09F452CF809182039091E1
:101BD0008303DC01ED91FC910284F385E02D0995EE
:101BE00047CF85EEA0CF8091B0029091B102A09135
:101BF000B202B091B302892B8A2B8B2B09F499CFB7
:101C00000E94F5000091B0021091B1022091B20241
:101C10003091B3026C197D098E099F0906171707C9
:101C20002807390708F085CFBACF81E08DCFCF9351
:101C300083E00E94110DC82F84E00E94110D9C2F9B
:101C400026E0969587952A95E1F7CF9108950E9411
:101C5000EF1185ED8093BC008091B0029091B102AC
:101C6000A091B202B091B3020796A11DB11D23E06D
:101C7000B695A795979587952A95D1F72091BC00A1
:101C800024FD03C01092AE0208954091B00250911D
:101C9000B1026091B2027091B302452B462B472BE3
:101CA00069F30097A105B10541F025E32A95F1F705
:101CB00000000197A109B109E1CF8091AF020C9416
:101CC000050B1F920F920FB60F9211242F933F9383
:101CD0008F939F93AF93BF9380915E0290915F0229
:101CE000A0916002B091610230915D0223E0230F68
:101CF0002D3758F50196A11DB11D20935D028093EB
:101D00005E0290935F02A0936002B09361028091A3
:101D1000620290916302A0916402B0916502019603
:101D2000A11DB11D8093620290936302A09364028F
:101D3000B0936502BF91AF919F918F913F912F9189
:101D40000F900FBE0F901F90189526E8230F029654
:101D5000A11DB11DD2CF1F920F920FB60F92112469
:101D60002F933F934F935F936F937F938F939F93A3
:101D7000AF93BF93EF93FF9388ED92E00E94CC0165
:101D8000FF91EF91BF91AF919F918F917F916F9153
:101D90005F914F913F912F910F900FBE0F901F9029
:101DA00018951F920F920FB60F9211242F938F93B5
:101DB0009F93EF93FF93E091E802F091E902808115
:101DC000E091EE02F091EF0282FD1BC090818091C4
:101DD000F1028F5F8F732091F202821741F0E09140
:101DE000F102F0E0E852FD4F958F8093F102FF91F0
:101DF000EF919F918F912F910F900FBE0F901F9099
:101E000018958081F4CF1F920F920FB60F92112474
:101E10002F933F934F935F936F937F938F939F93F2
:101E2000AF93BF93EF93FF938091B900887F803683
:101E300009F44AC0F0F5883209F4A7C018F58031DA
:101E400009F49BC0B8F4882309F4F9C0883009F478
:101E500094C0FF91EF91BF91AF919F918F917F912E
:101E60006F915F914F913F912F910F900FBE0F9007
:101E70001F901895883109F488C0803251F78093FB
:101E8000AC0214C0803409F49DC040F48033B9F32F
:101E90008833F9F68093AC0285ECB0C0803509F444
:101EA00085C0883509F496C0883499F60E94290EB9
:101EB000D0CF883909F48CC038F5883729F050F430
:101EC000883611F0803729F683E08093AE021092B5
:101ED000530257C0883809F47BC0803919F0803824
:101EE00009F0B7CF80915302803208F071C0E091C1
:101EF000530281E08E0F809353028091BB00F0E08B
:101F0000ED5CFD4F80833DC0803B39F0E0F4803ACA
:101F100009F479C0883A09F09CCF84E08093AE023E
:101F20001092320210923102E0915702F091580261
:101F300009958091310281110FC081E080933102B7
:101F40001092110209C0803C09F4A6CF883C09F424
:101F5000A3CF883B09F07DCFE091320281E08E0F64
:101F600080933202F0E0EF5EFD4F80818093BB00F2
:101F7000909132028091310229C080918902809330
:101F8000BB0085EC8093BC0064CF9091AB02809144
:101F9000AA02981758F5E091AB0281E08E0F80936A
:101FA000AB02F0E0E657FD4F8081E9CFE091AB0254
:101FB00081E08E0F8093AB028091BB00F0E0E6578A
:101FC000FD4F80839091AB028091AA029817C8F2CE
:101FD00085E8D8CFE091AB0281E08E0F8093AB0211
:101FE0008091BB00F0E0E657FD4F80838091AD0209
:101FF00081115CCF81E08093880284EA8093BC00E9
:102000001092AE0226CF85EC8093BC001092AE02F7
:1020100080915302803230F4E0915302F0E0ED5CA5
:10202000FD4F10826091530270E0E0915502F091F3
:10203000560283E392E00995109253020ACF109260
:10204000AC0234CFCF93DF93E8EDF2E0138212823B
:1020500088EE93E0A0E0B0E084839583A683B78305
:102060002FE131E03183208325EC30E03587248770
:1020700024EC30E03787268720EC30E0318B208B52
:1020800021EC30E0338B228B22EC30E0358B248B3B
:1020900026EC30E0378B268B118E128E138E148E29
:1020A000E5E7F3E01382128284839583A683B783E6
:1020B00081E391E091838083C5E8D3E083E491E0FC
:1020C0009983888381E893E09A8789878AE0888763
:1020D0000E94870061E088850E94A9008BE791E05B
:1020E000998388831C86DF91CF910895CF93DF93E6
:1020F000CDB7DEB7A1970FB6F894DEBF0FBECDBF48
:10210000789484B5826084BD84B5816084BD85B5D2
:10211000826085BD85B5816085BD80916E008160DE
:1021200080936E0010928100809181008260809384
:102130008100809181008160809381008091800086
:102140008160809380008091B10084608093B100B1
:102150008091B00081608093B00080917A008460AB
:1021600080937A0080917A00826080937A008091D7
:102170007A00816080937A0080917A0080688093F1
:102180007A001092C100E091E802F091E90282E049
:102190008083E091E402F091E5021082E091E60292
:1021A000F091E70280E180831092F002E091EC026E
:1021B000F091ED0286E08083E091EA02F091EB027B
:1021C000808180618083E091EA02F091EB0280815E
:1021D00088608083E091EA02F091EB028081806860
:1021E0008083E091EA02F091EB0280818F7D808311
:1021F00021E040E150E060E070E085E893E00E947B
:10220000D308882339F064E670E080E090E00E9413
:102210001A01EECF8FEA91E00E94040D81EC91E06B
:102220000E94040D85E793E09093830380938203DB
:1022300010926702109266021092B5021092D702B5
:102240000E94E70A8CE491E0909358028093570231
:102250008DE491E0909356028093550280E2809342
:10226000840391E09093B4028093D60281E00E94AF
:10227000260B3AE0832E912CA12CB12C40E0E42EC9
:1022800040E0F42E882349F084EC91E00E94040D94
:1022900081EC91E00E94040DFFCF0E94170E9093F5
:1022A0005C0280935B0285E00E94110D182F86E08E
:1022B0000E94110D912F26E0969587952A95E1F7BA
:1022C00090935A02809359020E94170E9C0150E08D
:1022D00040E019A28E010F5D1F4FCA01B901A5018F
:1022E00094010E94C711605DF80162938F0121156E
:1022F00031054105510589F7309719F0CF010E944A
:10230000040D81EC91E00E94040D80915B0290919C
:102310005C0242E051E08835F2E09F0790F443E030
:1023200051E08D3221E0920760F08F3E914039F00C
:102330008091590290915A028731924041F444E0D1
:1023400051E063E470E080E090E00E94FF0680913D
:10235000590290915A0240E051E08F3F23E09207EA
:1023600021F0892B41F441E051E062E270E080E02D
:1023700090E00E94FF06E114F10409F48ECF0E9460
:10238000B801882309F489CF0E94000086CFA1E21A
:102390001A2EAA1BBB1BFD010DC0AA1FBB1FEE1FDF
:1023A000FF1FA217B307E407F50720F0A21BB30B2A
:1023B000E40BF50B661F771F881F991F1A9469F7A6
:1023C00060957095809590959B01AC01BD01CF0102
:1023D0000895EE0FFF1F0590F491E02D099481E020
:0C23E00090E0F8940C94F411F894FFCFF6
:1023EC0001006C7269310000004100000000000027
:1023FC00005130405004104004081000000000EE62
:10240C00014E017B013B02AC018A019E01000000E0
:10241C00006D0C400C9C0C160C390C260C170C0087
:10242C00000000270E270E270E270E270E270E273B
:10243C000E270E270E270E270E270E270E270E27E8
:10244C000E270E270E270E270E270E270E270E27D8
:10245C000E270E270E270E000000001707FE0CFC9F
:10246C000CD3088E082708FE05A60A910A8B0ABB16
:10247C000A6A06C9046203CC0C9F0CA3052E05F254
:10248C00062605D10489025B02B2071005450643F6
:10249C00414E204255532020496E6974204F4B21E8
:1024AC00000D0A004A6F79737469636B20646F6561
:1024BC0073206E6F742061707065617220746F2070
:1024CC00626520636F6E6E65637465642E20506C5C
:1024DC006561736520636865636B20776972696EEB
:1024EC00672E20467265657A696E672E2E2E000067
:00000001FF
