:100000000C945D000C9485000C9485000C94850084
:100010000C9485000C9485000C9485000C9485004C
:100020000C9485000C9485000C9485000C9485003C
:100030000C9485000C9485000C9485000C9485002C
:100040000C94FB010C9485000C946B020C944502FB
:100050000C9485000C9485000C9485000C9485000C
:100060000C9485000C94850000000008000201003B
:100070000003040700000000000000000000000072
:10008000250028002B0000000000240027002A0083
:10009000040404040404040402020202020203032E
:1000A0000303030301020408102040800102040836
:1000B00010200102040810207D0311241FBECFEF81
:1000C000D8E0DEBFCDBF11E0A0E0B1E0E4E6F7E0AC
:1000D00002C005900D92A631B107D9F721E0A6E143
:1000E000B1E001C01D92AD3BB207E1F710E0CDE5F4
:1000F000D0E004C02197FE010E94AA03CC35D107AD
:10010000C9F70E949D020C94B0030C94000090E08B
:10011000FC01EC55FF4F249180579F4FFC018491C7
:10012000882399F090E0880F991FFC01EA57FF4F50
:10013000A591B491FC01E458FF4F859194918FB73C
:10014000F894EC91E22BEC938FBF0895E2E7F0E096
:100150002491EEEAF0E09491EAE9F0E0E491EE23F4
:10016000C9F0222339F0233001F1A8F4213019F12C
:10017000223029F1F0E0EE0FFF1FE458FF4FA59168
:10018000B4912FB7F894EC91811126C090959E23DD
:100190009C932FBF08952730A9F02830C9F0243050
:1001A00049F7209180002F7D03C0209180002F7798
:1001B00020938000DFCF24B52F7724BDDBCF24B57B
:1001C0002F7DFBCF2091B0002F772093B000D2CFAE
:1001D0002091B0002F7DF9CF9E2BDACFAF92BF9246
:1001E000CF92DF92EF92FF920F931F93CF93DF9303
:1001F0006C017B018B01040F151FEB015E01AE1832
:10020000BF08C017D10759F06991D601ED91FC9153
:100210000190F081E02DC6010995892B79F7C50180
:10022000DF91CF911F910F91FF90EF90DF90CF90D2
:10023000BF90AF900895FC01538D448D252F30E081
:10024000842F90E0821B930B541710F0CF960895E3
:1002500001970895FC01918D828D981761F0A28D10
:10026000AE0FBF2FB11D5D968C91928D9F5F9F73D6
:10027000928F90E008958FEF9FEF0895FC01918D8C
:10028000828D981731F0828DE80FF11D858D90E0F9
:1002900008958FEF9FEF0895FC01918D228D892F96
:1002A00090E0805C9F4F821B91098F73992708957E
:1002B00087E191E00E944C0121E0892B09F420E0C4
:1002C000822F089580E090E0892B29F00E94580148
:1002D00081110C9400000895FC01A48DA80FB92F82
:1002E000B11DA35ABF4F2C91848D90E001968F735E
:1002F0009927848FA689B7892C93A089B1898C917D
:10030000837080648C93938D848D981306C00288CB
:10031000F389E02D80818F7D80830895EF92FF9295
:100320000F931F93CF93DF93EC0181E0888F9B8D18
:100330008C8D98131AC0E889F989808185FF15C0D2
:100340009FB7F894EE89FF896083E889F9898081F5
:100350008370806480839FBF81E090E0DF91CF91C4
:100360001F910F91FF90EF900895F62E0B8D10E0E6
:100370000F5F1F4F0F731127E02E8C8D8E110CC055
:100380000FB607FCFACFE889F989808185FFF5CFA0
:10039000CE010E946C01F1CFEB8DEC0FFD2FF11D12
:1003A000E35AFF4FF0829FB7F8940B8FEA89FB89DD
:1003B00080818062CFCFCF93DF93EC01888D88233B
:1003C000B9F0AA89BB89E889F9898C9185FD03C0B8
:1003D000808186FD0DC00FB607FCF7CF8C9185FF9D
:1003E000F2CF808185FFEDCFCE010E946C01E9CF75
:1003F000DF91CF9108951F920F920FB60F921124A3
:100400002F933F938F939F93AF93BF938091B901A5
:100410009091BA01A091BB01B091BC013091B8019B
:1004200023E0230F2D3758F50196A11DB11D209310
:10043000B8018093B9019093BA01A093BB01B09326
:10044000BC018091B4019091B501A091B601B09129
:10045000B7010196A11DB11D8093B4019093B50120
:10046000A093B601B093B701BF91AF919F918F91C7
:100470003F912F910F900FBE0F901F90189526E877
:10048000230F0296A11DB11DD2CF1F920F920FB65E
:100490000F9211242F933F934F935F936F937F930A
:1004A0008F939F93AF93BF93EF93FF9387E191E077
:1004B0000E946C01FF91EF91BF91AF919F918F913D
:1004C0007F916F915F914F913F912F910F900FBE50
:1004D0000F901F9018951F920F920FB60F92112434
:1004E0002F938F939F93EF93FF93E0912701F091C8
:1004F00028018081E0912D01F0912E0182FD1BC029
:100500009081809130018F5F8F732091310182172C
:1005100041F0E0913001F0E0E95EFE4F958F80936D
:100520003001FF91EF919F918F912F910F900FBE0E
:100530000F901F9018958081F4CF789484B58260D5
:1005400084BD84B5816084BD85B5826085BD85B577
:10055000816085BD80916E00816080936E001092F5
:100560008100809181008260809381008091810070
:100570008160809381008091800081608093800001
:100580008091B10084608093B1008091B00081605F
:100590008093B00080917A00846080937A0080918B
:1005A0007A00826080937A0080917A0081608093E3
:1005B0007A0080917A00806880937A001092C1005E
:1005C00081E00E94A600E0912701F091280182E0DD
:1005D0008083E0912301F09124011082E0912501B4
:1005E000F091260180E1808310922F01E0912B0190
:1005F000F0912C0186E08083E0912901F0912A019D
:10060000808180618083E0912901F0912A018081BD
:1006100088608083E0912901F0912A0180818068BF
:100620008083E0912901F0912A0180818F7D808370
:10063000CFB7F89480911601811123C0EAE9F0E068
:100640008491EEEAF0E09491E82FF0E0EE0FFF1FC6
:10065000EA57FF4FA591B491EC91E92319F481E099
:100660000E94A6008AE00E9487008CB580618CBD44
:100670008CB580648CBD8DE00E9487008BE00E9469
:100680008700809116018F5F80931601CFBF8CB5D4
:100690008C7F81608CBD8DB581608DBDC0E0D0E068
:1006A00080E00E94A60087E191E00E944C011816AC
:1006B0001906BCF487E191E00E942A018EBD00007A
:1006C0000DB407FEFDCF9EB5682F87E191E00E9433
:1006D0008E0142E050E062E171E087E191E00E942A
:1006E000EE0081E00E94A6002097D1F20E945801FE
:1006F0008823B1F20E940000D3CFE7E1F1E013823A
:10070000128288EE93E0A0E0B0E084839583A68314
:10071000B78384E091E09183808385EC90E09587B6
:10072000848784EC90E09787868780EC90E0918BBB
:10073000808B81EC90E0938B828B82EC90E0958BA8
:10074000848B86EC90E0978B868B118E128E138EA5
:10075000148E0895EE0FFF1F0590F491E02D09947B
:04076000F894FFCF3B
:10076400000000008E01EE001B01DB014C012A0198
:060774003E010D0A000029
:00000001FF
