:100000000C945D000C9485000C9485000C94850084
:100010000C9485000C9485000C9485000C9485004C
:100020000C9485000C9485000C9485000C9485003C
:100030000C9485000C9485000C9485000C9485002C
:100040000C942A0B0C9485000C949A0B0C94740B52
:100050000C9485000C9485000C9485000C9485000C
:100060000C9485000C94850000000008000201003B
:100070000003040700000000000000000000000072
:10008000250028002B0000000000240027002A0083
:10009000040404040404040402020202020203032E
:1000A0000303030301020408102040800102040836
:1000B0001020010204081020CC0B11241FBECFEF2A
:1000C000D8E0DEBFCDBF22E0A8ECB1E001C01D92B8
:1000D000A238B207E1F711E0A0E0B1E0E8E6FAE10A
:1000E00002C005900D92A83CB107D9F710E0CDE50C
:1000F000D0E004C02197FE010E94270DCC35D10726
:10010000C9F70E94140C0C94320D0C94000090E07E
:10011000FC01EC55FF4F249180579F4FFC018491C7
:10012000882399F090E0880F991FFC01EA57FF4F50
:10013000A591B491FC01E458FF4F859194918FB73C
:10014000F894EC91E22BEC938FBF08958CBD9DBD8C
:10015000089590E0FC01E859FF4F2491FC01EC5513
:10016000FF4F3491FC01E057FF4FE491EE23C9F0BB
:10017000222339F0233001F1A8F4213019F1223083
:1001800029F1F0E0EE0FFF1FE458FF4FA591B49165
:100190008FB7F894EC91611126C030953E233C93C3
:1001A0008FBF08952730A9F02830C9F0243049F7CF
:1001B000809180008F7D03C0809180008F77809335
:1001C0008000DFCF84B58F7784BDDBCF84B58F7D92
:1001D000FBCF8091B0008F778093B000D2CF809119
:1001E000B0008F7DF9CF3E2BDACF3FB7F8948091E6
:1001F000D3019091D401A091D501B091D60126B53B
:10020000A89B05C02F3F19F00196A11DB11D3FBF4E
:10021000BA2FA92F982F8827BC01CD01620F711D1D
:10022000811D911D42E0660F771F881F991F4A9517
:10023000D1F708958F929F92AF92BF92CF92DF92A3
:10024000EF92FF924B015C010E94F5006B017C0173
:100250000E94F5006C197D098E099F09683E734064
:1002600081059105A8F321E0821A9108A108B1083F
:1002700088EEC80E83E0D81EE11CF11C81149104A5
:10028000A104B10429F7FF90EF90DF90CF90BF90C9
:10029000AF909F908F900895AF92BF92CF92DF92D0
:1002A000EF92FF920F931F93CF93DF936C017B012B
:1002B0008B01040F151FEB015E01AE18BF08C017BC
:1002C000D10759F06991D601ED91FC910190F0812F
:1002D000E02DC6010995892B79F7C501DF91CF91F2
:1002E0001F910F91FF90EF90DF90CF90BF90AF9054
:1002F0000895FC01538D448D252F30E0842F90E02C
:10030000821B930B541710F0CF9608950197089510
:10031000FC01918D828D981761F0A28DAE0FBF2FD9
:10032000B11D5D968C91928D9F5F9F73928F90E02F
:1003300008958FEF9FEF0895FC01918D828D98179E
:1003400031F0828DE80FF11D858D90E008958FEFDB
:100350009FEF0895FC01918D228D892F90E0805CA4
:100360009F4F821B91098F739927089587ED91E024
:100370000E94AA0121E0892B09F420E0822F089530
:1003800080E090E0892B29F00E94B60181110C9445
:1003900000000895FC01A48DA80FB92FB11DA35A28
:1003A000BF4F2C91848D90E001968F739927848F95
:1003B000A689B7892C93A089B1898C9183708064B8
:1003C0008C93938D848D981306C00288F389E02D59
:1003D00080818F7D80830895EF92FF920F931F930A
:1003E000CF93DF93EC0181E0888F9B8D8C8D9813E8
:1003F0001AC0E889F989808185FF15C09FB7F894F4
:10040000EE89FF896083E889F9898081837080643F
:1004100080839FBF81E090E0DF91CF911F910F918A
:10042000FF90EF900895F62E0B8D10E00F5F1F4F99
:100430000F731127E02E8C8D8E110CC00FB607FCA8
:10044000FACFE889F989808185FFF5CFCE010E9436
:10045000CA01F1CFEB8DEC0FFD2FF11DE35AFF4FD9
:10046000F0829FB7F8940B8FEA89FB8980818062C4
:10047000CFCFCF93DF93EC01888D8823B9F0AA8981
:10048000BB89E889F9898C9185FD03C0808186FD4F
:100490000DC00FB607FCF7CF8C9185FFF2CF80819E
:1004A00085FFEDCFCE010E94CA01E9CFDF91CF9148
:1004B0000895DB014330C8F0FC01848543E050E03F
:1004C000481B510920E0822F90E084179507ECF437
:1004D0003C912330B0F48D5E9E4FFC019081832FC0
:1004E000892389F0909593230AC02C91E42FF0E0A2
:1004F000ED5EFE4F9081822F8923909592239C93ED
:10050000089590E0ECCF2F5FDECF80E00895FB01EF
:100510009081892F817090FF03C09E7F9083089502
:10052000892F82709C7FFACF08958EBD00000DB494
:1005300007FEFDCF8EB508952F923F924F925F92A6
:100540006F927F928F929F92AF92BF92CF92DF92E3
:10055000EF92FF920F931F93CF93DF9300D000D0C1
:10056000CDB7DEB73C01962E5A011901280160E093
:10057000FC0180850E94A900892D0E9495028E01B0
:100580000F5F1F4F4E01F5E08F0E911C80E00E941F
:100590009502F80181938F01E815F905B9F72A81D1
:1005A0008981F8E08F9FC0011124422F50E065E05F
:1005B000559547956A95E1F7840F951F092E000C14
:1005C000AA0BBB0BF50180839183A283B383F10156
:1005D000108223FF3AC0F50180819181A281B3810D
:1005E00032E0880F991FAA1FBB1F3A95D1F72370DD
:1005F000820F911DA11DB11D80839183A283B383BE
:1006000080819181A281B381BA2FA92F982F882749
:100610002B81820F911DA11DB11D80839183A28327
:10062000B38380819181A281B381BA2FA92F982FA2
:1006300088272C81820F911DA11DB11D808391837C
:10064000A283B38381E0F101808380E00E94950260
:10065000982F9F70F701908386FB882780F9F2011D
:10066000808310E000E0F7018081081770F4083003
:10067000110559F05601A00EB11E80E00E949502AE
:10068000F50180830F5F1F4FEECF61E0F30180859E
:100690000F900F900F900F90DF91CF911F910F91BE
:1006A000FF90EF90DF90CF90BF90AF909F908F9092
:1006B0007F906F905F904F903F902F900C94A90087
:1006C0006F927F928F929F92AF92BF92CF92DF9262
:1006D000EF92FF920F931F93CF93DF93EC015A0198
:1006E0004901380160FF23C060E9CE010E949C02ED
:1006F000F30180818F83F40180818A83F5018081F9
:100700009181A281B3818B839C83AD83BE8380E082
:10071000DF91CF911F910F91FF90EF90DF90CF90DD
:10072000BF90AF909F908F907F906F90089561FFE2
:1007300002C064E9DACFF701108284E0E9CF6F925A
:100740007F928F929F92AF92BF92CF92DF92EF9261
:10075000FF920F931F93CF93DF9300D000D0CDB7BC
:10076000DEB74C01162F902F02E4613439F004E417
:10077000613521F000E4613309F000E080E4E1102C
:1007800001C080E0DC2CD82A913009F047C02C83CE
:100790003B839A0144275527822F83708860922FCC
:1007A000990F990F990F907E892B8A8375E0369562
:1007B00027957A95E1F7298380E590E00E94A600CD
:1007C00060E0F40180850E94A900802F0E949502BC
:1007D000CE0101967C013E0195E0690E711CF70186
:1007E00081917F010E949502E614F704C1F78D2DD7
:1007F0000E949502D12CF12CE12CCE14DF04E1F003
:10080000F8E0EF16F104C1F0F501EE0DFF1D808157
:100810000E9495028FEFE81AF80AEFCFC90133E082
:10082000969587953A95E1F789832295220F207E48
:100830002A831C821B82C0CF61E0F40180850E9464
:10084000A90080E590E00E94A60060E0F4018085A8
:100850000E94A90082E8113439F084E8113521F0B2
:1008600081E8113309F080E00E94950261E0F40113
:1008700080850F900F900F900F90DF91CF911F9177
:100880000F91FF90EF90DF90CF90BF90AF909F902F
:100890008F907F906F900C94A900DF92EF92FF925F
:1008A0000F931F93CF93DF9300D000D0CDB7DEB767
:1008B0007C01D62E413009F040C00C831B83890196
:1008C00022273327802F83708860902F990F990FEC
:1008D000990F907E892B8A8355E0169507955A9536
:1008E000E1F7098380E590E00E94A60060E0F7014F
:1008F00080850E94A90082E00E9495028D2D0E94B1
:10090000950289810E9495028A810E9495028B81BD
:100910000E9495028C810E94950261E0F70180851A
:100920000F900F900F900F90DF91CF911F910F912B
:10093000FF90EF90DF900C94A900C80123E09695FA
:1009400087952A95E1F789830295000F007E0A8337
:100950001C821B82C7CF1F93CF93DF93EC0180E5EE
:1009600090E00E94A60060E088850E94A90080EACD
:100970000E94950280E00E949502182F61E0888510
:100980000E94A900812FDF91CF911F9108950E94AD
:10099000AB04837011F484E0089583E008950E940D
:1009A000AB04982F9B7A292F30E0959595959595D6
:1009B00090718370982BA901559547954470942B9D
:1009C00035952795359527952870892F822B089581
:1009D000FF920F931F93CF93DF93EC01F62E042F1A
:1009E000122F80E590E00E94A60060E088850E94BA
:1009F000A90085E00E9495028F2D0E949502802F0C
:100A00000E949502812F0E94950261E08885DF9106
:100A1000CF911F910F91FF900C94A900662321F0B4
:100A2000613061F080E0089520E1413009F020E07C
:100A300040E16CE00E94E80481E0089520E241304A
:100A400009F020E040E2F5CF462F4C7121F020E084
:100A50006CE20C94E80408954F925F926F927F923B
:100A6000AF92BF92CF92EF920F931F93CF93DF93EA
:100A7000ECEFE60FED3010F5F0E0E050FF4F1081A5
:100A80001123E1F029013A01462FEC0120E06CE24C
:100A90000E94E804A3019201612FCE010E949F03EE
:100AA00080E0DF91CF911F910F91EF90CF90BF9099
:100AB000AF907F906F905F904F90089582E0F1CF5C
:100AC0000F931F93CF93DF93EC018B010E94AB0434
:100AD0008475F8011082843591F19C8563E070E0A3
:100AE000691B710990E0292F30E0261737073CF584
:100AF0004FEF933020F4F901E05FFE4F408148232F
:100B0000E1F480E5933020F4F901E35FFE4F80814A
:100B10008F5FF801808340E0933020F42D5E3E4FDC
:100B2000F901408120E06CE2CE010E94E80480E0FF
:100B3000DF91CF911F910F9108959F5FD4CF82E0F5
:100B4000F7CF4F925F926F927F928F929F92AF9268
:100B5000BF92CF92DF92EF920F931F93CF93DF93C9
:100B60001F92CDB7DEB74C012A013B01122F82E064
:100B70008A15C8F11982C4010E94AB042A2D30E005
:100B8000F901E05FFE4F9081892391F082E00F90A0
:100B9000DF91CF911F910F91EF90DF90CF90BF9099
:100BA000AF909F908F907F906F905F904F9008953F
:100BB000F901E35FFE4F80818F5F8983F901ED5E6C
:100BC000FE4F20E040816CE2C4010E94E80456011F
:100BD000CE2CE02E012FA30192016981C4010E9455
:100BE0009F0380E0D4CFBE016F5F7F4FC4010E949E
:100BF0006005882361F3CACF20E0611120E440E45E
:100C00006BE20C94E8040F931F93CF93DF93EC01F6
:100C1000062F142F80E590E00E94A60060E08885F2
:100C20000E94A90082E00E949502802F0E949502F6
:100C3000812F0E94950261E08885DF91CF911F91FD
:100C40000F910C94A9001F93CF93DF93EC01162F03
:100C500080E590E00E94A60060E088850E94A900DF
:100C600083E00E949502812F0E94950280E00E94FD
:100C70009502182F61E088850E94A900812FDF91DD
:100C8000CF911F9108956230D1F030F4662351F076
:100C9000613071F080E008956330C1F06430D1F7C5
:100CA0006DE007C06CE00E94230682958170089574
:100CB0006CE00E94230685FB882780F908956DE08B
:100CC0000E94230683FB882780F908956DE0EBCF0F
:100CD000CF93DF93EB016DE20E942306209709F08A
:100CE0008883887F09F085E0DF91CF9108952F9266
:100CF0003F924F925F926F927F928F929F92AF92AC
:100D0000BF92CF92DF92EF92FF920F931F93CF93F8
:100D1000DF931F92CDB7DEB74C012A013B01222E93
:100D2000302EFA2CFC014382548265827682228323
:100D3000078310E000E093E2A92EB12CBE016F5FA3
:100D40007F4FC4010E9460050F5F1F4F823049F43E
:100D50000233110511F486E014C0C5010197F1F7C3
:100D6000EDCF02331105B9F35601CE2CE32C022D41
:100D7000A30192016981C4010E949F03F11026C062
:100D800080E00F90DF91CF911F910F91FF90EF9036
:100D9000DF90CF90BF90AF909F908F907F906F909B
:100DA0005F904F903F902F900895C7010197F1F702
:100DB0000F5F1F4F69816150C4010E94230683FFAA
:100DC0000BC00233110589F787E0DBCF10E000E0AC
:100DD00083E2E82EF12CECCF0233110589F6F4CF33
:100DE000AF92CF92DF92EF920F930E9477060F910E
:100DF000EF90DF90CF90AF9008951F93CF93DF9344
:100E0000EC01162F6BE20E942306482F112341F0BC
:100E10004C616BE2CE01DF91CF911F910C940306E0
:100E2000437EF7CFCF92DF92EF92FF921F93CF9343
:100E3000DF93EC01162F8FB7F894C090CF01D090BC
:100E4000D001E090D101F090D2018FBF212F40EE70
:100E50006FE0CE010E94E8046EE0CE010E942306FE
:100E6000807E1817E9F02FB7F8948091CF01909108
:100E7000D001A091D101B091D2012FBF8C199D0951
:100E8000AE09BF09893C9105A105B105F8F281E0E1
:100E9000DF91CF911F91FF90EF90DF90CF90089559
:100EA00080E0F6CF0F931F93CF93DF93EC01162FC3
:100EB000E881F9810488F589E02D0995803221F5D2
:100EC000103211F16BE2CE010E942306082F00744C
:100ED00086FD06C020E440E46BE2CE010E94E804F7
:100EE00020E440E46CE2CE010E94E80460E6CE011A
:100EF0000E941207811116C0011106C020E040E4D3
:100F00006BE2CE010E94E80420E040E46CE2CE01F6
:100F10000E94E804612FCE01DF91CF911F910F91C4
:100F20000C94120781E0DF91CF911F910F910895EA
:100F30001F93CF93DF93EC01142F6230D9F130F47B
:100F40006623A9F0613049F110E01FC0633009F455
:100F500053C06430C9F760E80E94520781112FC066
:100F6000113009F457C01330A9F520E054C04130C6
:100F700089F020F0423041F724E00DC020E044E049
:100F80006CE0CE010E94E80411E0812FDF91CF9147
:100F90001F91089525E045E0F3CF413041F020F066
:100FA000423091F628E004C020E048E0E9CF2AE092
:100FB0004AE0E6CF60E80E945207882339F06AE0F1
:100FC00070E080E090E00E941A01BECF113021F065
:100FD000133081F010E007C021E041E06DE0CE0168
:100FE0000E94E80411E06B85CE010E94520788231D
:100FF00061F2E5CF20E0F1CF60E80E945207811155
:10100000DECF113021F0133029F720E001C022E0BB
:1010100042E0E4CF24E044E0E1CF8F929F92AF9290
:10102000BF92EF92FF920F931F93CF93DF93EC0148
:10103000F62EE42E480159016AE070E080E090E06D
:101040000E941A0160E8CE010E945207182F8823DF
:1010500091F06AE070E080E090E00E941A01812F38
:10106000DF91CF911F910F91FF90EF90BF90AF90C4
:101070009F908F90089582E0F81639F18F1558F0FF
:10108000FF20B1F081E0F816D9F06B85CE010E9407
:101090005207182FDECF84E0F81609F1F816D0F0C9
:1010A00085E0F812F2CF950184014E2D68E104C06D
:1010B000950184014E2D60E0CE010E944D04E5CFE4
:1010C000950184014E2D64E0F7CF950184014E2DEA
:1010D00068E0F2CF950184014E2D60E1EDCF9501DE
:1010E00084014E2D64E1E8CF8F929F92AF92BF9220
:1010F000EF92FF920F931F93CF93DF93EC01E62EB5
:10110000F42E480159016AE070E080E090E00E940E
:101110001A0160E8CE010E945207182F882391F02F
:101120006AE070E080E090E00E941A01812FDF9178
:10113000CF911F910F91FF90EF90BF90AF909F9034
:101140008F900895E1100DC0950184014F2D60E24C
:10115000CE010E944D046B85CE010E945207182FCC
:10116000DFCF81E0E812F7CF950184014F2D64E2D3
:10117000EFCFEF92FF921F93CF93DF937C01C42FA9
:10118000D22F1FB7F8948091C801811124C0EAE9D9
:10119000F0E08491EEEAF0E09491E82FF0E0EE0FB9
:1011A000FF1FEA57FF4FA591B491EC91E92321F479
:1011B00061E08AE00E94A9008AE00E9487008CB565
:1011C00080618CBD8CB580648CBD8DE00E948700F1
:1011D0008BE00E9487008091C8018F5F8093C801D7
:1011E0001FBF80E590E00E94A60060E0D70118963E
:1011F0008C910E94A90080EC0E94950261E0F701A9
:1012000080850E94A9006AE070E080E090E00E9482
:101210001A0160E8C7010E945207182F6AE070E0C7
:1012200080E090E0112361F00E941A0181E0111129
:1012300001C080E0DF91CF911F91FF90EF90089562
:101240000E941A01D23009F4ADC0D33009F4F3C0C2
:10125000D13009F07AC0C150C33108F076C0EC2F0C
:10126000F0E0EB5CF64F0C94270D5A0A650A48092A
:10127000680A4C094F095309AA09AD09B109B40913
:10128000B709BA09BD09C109C509C809CB09CF0900
:10129000C7E8DFEF1FE00AC0C5E8D1EFFBCFC7E02A
:1012A000DEEB19E003C0C7E8DFEF17E0412F6AE289
:1012B000C7010E9403064D2F69E2C7010E94030681
:1012C0004C2F68E2C7010E9403066AE070E080E0EC
:1012D00090E00E941A01C0E340E06C2FC7010E9419
:1012E000030660E16C0F40E0C7010E94030660E264
:1012F0006C0F40E0C7010E940306CF5FCE3361F759
:1013000040E060E6C7010E94030640E060E7C701D5
:101310000E94030643E06BE2C7010E94030624E03B
:1013200044E660E6C7010E94E80420E040E660E78A
:10133000C7010E94E804D701ED91FC910288F3896E
:10134000E02D60E0C7010995182F6AE070E080E0A9
:1013500090E06ACFC7E8DAEFA8CFC7E8DFEF13E085
:10136000A5CFC7E0DEEBFBCFC7E0DDEAF8CFC7E8EB
:10137000DAEFF5CFC6E8D0EFF2CFC7E8DAEF11E049
:1013800095CFC5E8D1EF11E491CFC6E8D0EF8ECF6D
:10139000C4E0D0EA8BCFC2E0D2E910E487CFC2E844
:1013A000D0ED84CFC350C13180F6EC2FF0E0E55290
:1013B000F64F0C94270D5E0A6B0AEC09F009F4094C
:1013C000F709FB09FF09020A060A090A0C0A0F0AB3
:1013D000120A150AA509180AC3E0DCEA1BE066CF69
:1013E000C2E0D4EA1CE062CFC3E0D4EA5ACFC4E042
:1013F000D6EB15E05BCFC3E0D4EA14E057CFC3E0EF
:10140000D5EBADCFC4E0DEEB12E050CFC4E0D6EBBD
:10141000FBCFC6E0DFEBB3CFC3E0D4EAB0CFC6E08A
:10142000DFEB44CFC2E0DBE941CFC1E0D2E93ECF00
:10143000C1E0D8E83BCFC150C33108F086CFEC2FD4
:10144000F0E0EB5DF54F0C94270D610A6E0A380A47
:10145000A5093B0AA5093E0A410A440AA509A509AE
:10146000460A490A4C0A4F0A520AA509550A580A5F
:10147000C7E0DFEB1ACFC4E0D4EA17CFC7E0DFEB59
:101480006ECFC6E0D4EB6BCFC7E0C4CFC6E0D4EBE1
:1014900076CFC5E0D1EB73CFC6E0D4EB07CFC5E084
:1014A000D1EB04CFC2E0D0E901CFC1E0D0E8FECE5D
:1014B000C0E0FCCFC7E8DFEF1FE3F8CEC5E0DFEB0D
:1014C00091CFC7E0DFEB1FE1F1CEC7E8DFEFFBCF45
:1014D000C7E0DAEBDFCEC4E0D6EB80CFC7E0DFEBCE
:1014E000D9CE603211F0FC0163870C945207CF9380
:1014F000DF93EC01E881F9810488F589E02D0995F5
:101500006B85681729F0CE01DF91CF910C945207BB
:1015100080E0DF91CF910895CF93DF93EC01E881D4
:10152000F9810488F589E02D0995803231F060E277
:10153000CE01DF91CF910C94520780E0DF91CF91E3
:1015400008956EE00E942306807E0895AF92BF92B8
:10155000CF92DF92EF92FF920F931F93CF93DF937F
:10156000EC017B016A01E881F981A28CB38C00A4B3
:10157000F1A5E02D09958E01095F1F4F9E012E5F99
:101580003F4FAE014D5F5F4F682FCE01F5010995CA
:10159000DF91CF911F910F91FF90EF90DF90CF904F
:1015A000BF90AF9008958F929F92AF92BF92CF92CB
:1015B000DF92EF92FF920F931F93CF93DF93EC0193
:1015C0004B017A016901E881F981A28CB38C00A4F6
:1015D000F1A5E02D09958E01095F1F4F9E012E5F39
:1015E0003F4FA401682FCE01F5010995DF91CF91FE
:1015F0001F910F91FF90EF90DF90CF90BF90AF9031
:101600009F908F90089582E00895633008F062E023
:10161000FC0164870895CF93DF93FC0101900020C3
:10162000E9F73197AF01481B590BBC0187ED91E0F9
:101630000E944C01EC0142E050E068E971E087ED66
:1016400091E00E944C018C0F9D1FDF91CF91089576
:101650000E942D0D1F920F920FB60F9211242F93FF
:101660003F938F939F93AF93BF938091CF019091BE
:10167000D001A091D101B091D2013091CE0123E0EF
:10168000230F2D3758F50196A11DB11D2093CE01D2
:101690008093CF019093D001A093D101B093D20158
:1016A0008091D3019091D401A091D501B091D60140
:1016B0000196A11DB11D8093D3019093D401A093F5
:1016C000D501B093D601BF91AF919F918F913F917A
:1016D0002F910F900FBE0F901F90189526E8230FA3
:1016E0000296A11DB11DD2CF1F920F920FB60F927D
:1016F00011242F933F934F935F936F937F938F9317
:101700009F93AF93BF93EF93FF9387ED91E00E9478
:10171000CA01FF91EF91BF91AF919F918F917F91FE
:101720006F915F914F913F912F910F900FBE0F904E
:101730001F9018951F920F920FB60F9211242F939E
:101740008F939F93EF93FF93E091E701F091E8016E
:101750008081E091ED01F091EE0182FD1BC090814E
:101760008091F0018F5F8F732091F101821741F01A
:10177000E091F001F0E0E952FE4F958F8093F00187
:10178000FF91EF919F918F912F910F900FBE0F902E
:101790001F9018958081F4CFCF93DF93E7EDF1E0B0
:1017A0001382128288EE93E0A0E0B0E084839583F8
:1017B000A683B7838AE191E09183808385EC90E0F2
:1017C0009587848784EC90E09787868780EC90E00B
:1017D000918B808B81EC90E0938B828B82EC90E0FC
:1017E000958B848B86EC90E0978B868B118E128E76
:1017F000138E148EC5E7D2E08CE291E09983888342
:1018000084E792E09A8789878AE088870E94870028
:1018100061E088850E94A90084E691E0998388832D
:101820001C86DF91CF910895789484B5826084BD41
:1018300084B5816084BD85B5826085BD85B58160D4
:1018400085BD80916E00816080936E001092810052
:10185000809181008260809381008091810081600D
:1018600080938100809180008160809380008091CE
:10187000B10084608093B1008091B000816080935A
:10188000B00080917A00846080937A0080917A0021
:10189000826080937A0080917A00816080937A00E0
:1018A00080917A00806880937A001092C100E09164
:1018B000E701F091E80182E08083E091E301F0919B
:1018C000E4011082E091E501F091E60180E180837E
:1018D0001092EF01E091EB01F091EC0186E0808342
:1018E000E091E901F091EA01808180618083E091DB
:1018F000E901F091EA01808188608083E091E9014B
:10190000F091EA01808180688083E091E901F091A3
:10191000EA0180818F7D808321E040E150E060E03A
:1019200070E085E792E00E94B908882359F08BE9BE
:1019300091E00E940B0B64E670E080E090E00E9472
:101940001A01EACF8FEA91E00E940B0B90E0892EFA
:1019500090E0992E87ED91E00E94AA0118161906D1
:101960000CF045C00BEC11E0D0E0C0E02FB7F894CC
:101970008091CF019091D001A091D101B091D2017D
:101980002FBF8093DF019093E001A093E101B0931A
:10199000E20187ED91E00E94880197FF4CC02FB7CC
:1019A000F8948091CF019091D001A091D101B09194
:1019B000D2012FBF4091DF015091E0016091E10120
:1019C0007091E201841B950BA60BB70B4091DB01D4
:1019D0005091DC016091DD017091DE018417950763
:1019E000A607B707B0F2D093CA01C093C901AA24D1
:1019F000A3948BECC82E81E0D82EE090C90100E0C2
:101A000020E043E450E060E070E085E792E00E946F
:101A1000770668EE73E080E090E00E941A0181147E
:101A2000910409F497CF0E94B601882309F492CF5C
:101A30000E9400008FCF8A309105A9F2F8018193AE
:101A40008F012196C330D10509F090CFCCCFEE0F96
:101A5000FF1F0590F491E02D099481E090E0F89447
:081A60000C94320DF894FFCF45
:101A680031000000410000000000000051304050EB
:101A780004104004081000000000EC014C0179013A
:101A88003902AA0188019C0100000000280B280BDC
:101A9800280B280B280B280B280B280B280B280BA6
:101AA800280B280B280B280B280B280B280B280B96
:101AB800280B280B280B280B280B280B280B280B86
:101AC80000000000FD06050B030BB90874080D089B
:101AD800FC058C0A770A710AA10A6806C704600324
:101AE800D30AA60AA1052C05F0062405CF0487020F
:101AF800590298070E0543060D0A0043414E20423D
:101B0800555320696E6974204661696C65640043A9
:101B1800414E2042555320536869656C6420496ED4
:081B28006974204F4B210000FD
:00000001FF
